:1000000010C02AC029C028C027C026C025C024C0CF
:1000100023C022C021C020C01FC01EC01DC01CC0E4
:100020001BC011241FBECFE5D2E0DEBFCDBF10E064
:10003000A0E6B0E0ECECFDE002C005900D92A03A25
:10004000B107D9F710E0A0EAB0E001C01D92A03AD4
:10005000B107E1F7A6D1B8C6D3CF00C000C000C039
:1000600000C000C000C000000895D698D498DE9863
:10007000DC980895D69AF1DF1DD00895D49AEDDF6B
:10008000D698EBDFD498E9DFD69AE7DF13D008954E
:10009000082ED69AE2DF802D0DD0882311F002D0F1
:1000A000F8CF0895D49AD69AD8DFD498D6DFD698C8
:1000B000D4DF08950894881F01C0880F59F0D49A9E
:1000C00018F40000D69802C0D69A00C0C6DFD498B3
:1000D000C4DFF3CFD49AD698C0DFD498CC9BFECFA0
:1000E0008827CE9981E0B9DF99270895882701C034
:1000F00081E071E0D49AD698B0DFD498AEDFCC9B83
:10010000FECF8894CE990894771FA0F7D49A8130B7
:1001100011F0D69801C0D69AA0DFD498CC9BFECF20
:100120009CDF872F992708950F931F93CF93DF9319
:10013000D82FA0DF80E0BEDF80E8BCDFB3DF06E9B8
:1001400010E0C8010197F1F78D2F94DF80E0B2DF56
:1001500080E2B0DFA7DFC8010197F1F78D2F8ADFBA
:1001600081E0A8DF80E1A6DF9DDF80E197E2FC016E
:100170003197F1F70197F1F7C6E000E117E28D2F13
:1001800079DF8C2F97DF80E095DF80E093DF80E1DF
:1001900091DF80E58FDF86DFC8010197F1F7C801A5
:1001A0000197F1F7CC5FC63451F7DF91CF911F91E2
:1001B0000F9108950F931F93CF93C82F5BDF80E0BB
:1001C00079DF81E377DF6EDF06E910E0C801019790
:1001D000F1F78C2F4FDF8EEF6DDF84E06BDF62DF96
:1001E000C8010197F1F78C2F45DF80E063DF81EADA
:1001F00061DF58DFC8010197F1F78C2F3BDF81E009
:1002000059DF84E057DF4EDFCF911F910F910895A2
:10021000CF92DF92EF92FF920F931F93CF93DF93D2
:10022000082F0F2EF0E6EF2EF0E0FF2EF02D16E057
:100230000F2EF6E9CF2EDD24F02D802F1BDF812F2E
:1002400039DF80E037DF80E035DFE701888132DFAA
:1002500084E090E0E80EF91E89812CDF23DFC601DF
:100260000197F1F71C5F163441F7DF91CF911F9191
:100270000F91FF90EF90DF90CF900895CF92DF9293
:10028000EF92FF92CF93DF93C22FD32FC42ED52EA0
:10029000E62EF72E90E0C91690E1D90690E0E90627
:1002A00090E0F90654F00F2EFFEFCF2EFFE0DF2E87
:1002B000F0E0EF2EF0E0FF2EF02DDCDE8C2F9D2FF6
:1002C0008031910514F08FE090E0880F880F8A5FED
:1002D000F1DE80E0EFDE80E0EDDE8C2DEBDE8D2DBB
:1002E000E9DEE0DEDF91CF91FF90EF90DF90CF90DD
:1002F00008950F931F93CF93DF938C01EA01161695
:1003000017068CF0FA01EE0FFF1FEE0FFF1FE05AE9
:10031000FF4F108211821282138240E050E0BA0136
:100320009E01ACDF30C06436710594F0FA01EE0F27
:10033000FF1FEE0FFF1FE05AFF4F10821182128243
:1003400013824FEF5FE060E070E09E0197DF1BC01B
:10035000882777FD8095982F40D42AE037ED43E237
:1003600052E49FD407D4AB01BC01FE01EE0FFF1F86
:10037000EE0FFF1FE05AFF4F408351836283738368
:10038000C8019E017BDFDF91CF911F910F910895EE
:1003900071DE8CEF8FDE80E08DDE80E18BDE82DE31
:1003A000089563DE84E690E00197F1F78AEA90E031
:1003B000BBDE80E197E20197F1F78AEA90E062E321
:1003C00070E04FE050E095DFDD246894D1F800E163
:1003D00017E2EE24FF240F2EF6E08F2E9924F02D45
:1003E0000F2EF3E06F2E7724F02D0F2EF8EEAF2EA8
:1003F000F3E0BF2EF02DCC240F2EF3E04F2EF02D86
:100400005524689451F833243394D798CF990BC06E
:1004100082E0D81609F4ACC383E0D81649F0DD2099
:1004200009F0A4C3D32CDD2009F07CC0E30101C096
:10043000E3018AEA90E061E070E0AE015ADFC801B2
:100440000197F1F7C8010197F1F7C8010197F1F79A
:100450002196C630D10569F7E7018AEA90E061E0AC
:1004600070E0AE0146DFC8010197F1F7C8010197BE
:10047000F1F7C8010197F1F72196C330D10569F76B
:10048000E4018AEA90E061E070E0AE0132DFC80189
:100490000197F1F7C8010197F1F7C8010197F1F74A
:1004A0002196CF30D10569F7E3018AEA90E069E14E
:1004B00070E0AE011EDFC8010197F1F7C801019796
:1004C000F1F7C8010197F1F72196C630D10569F718
:1004D000E7018AEA90E069E170E0AE010ADFC80155
:1004E0000197F1F7C8010197F1F7C8010197F1F7FA
:1004F0002196C330D10569F7E4018AEA90E069E109
:1005000070E0AE01F6DEC8010197F1F7C80101976E
:10051000F1F7C5010197F1F72196CF30D10569F7C1
:10052000DC2C73CF81E0D81609F0D0C0C1E0D0E058
:100530008AEA90E069E170E0AE01DBDEAE014F5F78
:100540005F4F8AEA90E0B701D4DEAE014E5F5F4FA5
:100550008AEA90E0B701CDDEC8010197F1F7C80142
:100560000197F1F7C8010197F1F72396C031D10542
:10057000F9F6C1E0D0E08AEA90E0B701AE01B9DE59
:10058000AE014F5F5F4F8AEA90E0B701B2DEAE0185
:100590004E5F5F4F8AEA90E0B701ABDEC80101977A
:1005A000F1F7C8010197F1F7C8010197F1F7239618
:1005B000C031D10501F7C1E0D0E08AEA90E0B7018F
:1005C000AE0197DEAE014F5F5F4F8AEA90E069E1CE
:1005D00070E08FDEAE014E5F5F4F8AEA90E0B701B8
:1005E00088DEC8010197F1F7C8010197F1F7C8014A
:1005F0000197F1F72396C031D105F9F6C1E0D0E0BB
:100600008AEA90E0B701AE0174DEAE014F5F5F4F42
:100610008AEA90E0B7016DDEAE014E5F5F4F8AEA75
:1006200090E0B70166DEC8010197F1F7C8010197B4
:10063000F1F7C8010197F1F72396C031D10501F711
:10064000C1E0D0E08AEA90E0B701AE0152DEAE012F
:100650004F5F5F4F8AEA90E0B7014BDEAE01415039
:1006600050408AEA90E069E170E043DEC8010197FA
:10067000F1F7C8010197F1F7C8010197F1F7239647
:10068000C031D105F9F6C1E0D0E08AEA90E0B701C7
:10069000AE012FDEAE014F5F5F4F8AEA90E0B701F7
:1006A00028DEAE01415050408AEA90E0B70121DED9
:1006B000C8010197F1F7C8010197F1F7C801019747
:1006C000F1F72396C031D10501F79FCE82E0D8160D
:1006D00009F0EEC1C1E0D0E08AEA90E0B701AE01D6
:1006E00008DE2196CF30D105B9F78AEA90E061E0C3
:1006F00070E0A301FEDD8AEA90E061E070E044E092
:1007000050E0F7DD8AEA90E061E070E045E050E01B
:10071000F0DDC8010197F1F7C8010197F1F7C801B1
:100720000197F1F7C8010197F1F78AEA90E0B70164
:10073000A301DFDD8AEA90E0B70144E050E0D9DDB3
:100740008AEA90E0B70145E050E0D3DDC8010197A7
:10075000F1F7C8010197F1F7C8010197F1F7C80156
:100760000197F1F7C8010197F1F78AEA90E061E09B
:1007700070E0A701BEDD8AEA90E061E070E041E050
:1007800050E0B7DD8AEA90E061E070E042E050E0DE
:10079000B0DDC8010197F1F7C8010197F1F78AEAC6
:1007A00090E0B701A701A5DD8AEA90E0B70141E03A
:1007B00050E09FDD8AEA90E0B70142E050E099DD29
:1007C000C8010197F1F7C8010197F1F7C801019736
:1007D000F1F7C8010197F1F7C8010197F1F78AEA2B
:1007E00090E061E070E0A40184DD8AEA90E061E0DD
:1007F00070E047E050E07DDD8AEA90E061E070E083
:1008000048E050E076DDC8010197F1F7C801019793
:10081000F1F78AEA90E0B701A4016BDD8AEA90E083
:10082000B70147E050E065DD8AEA90E0B70148E0B3
:1008300050E05FDDC8010197F1F7C8010197F1F7BA
:10084000C8010197F1F7C8010197F1F7C8010197B5
:10085000F1F78AEA90E061E070E049E050E049DDBC
:100860008AEA90E061E070E04AE050E042DD8AEA26
:1008700090E061E070E04BE050E03BDDC8010197A3
:10088000F1F7C8010197F1F78AEA90E0B70149E072
:1008900050E02FDD8AEA90E0B7014AE050E029DD20
:1008A0008AEA90E0B7014BE050E023DDC8010197F0
:1008B000F1F7C8010197F1F7C8010197F1F7C801F5
:1008C0000197F1F7C8010197F1F78AEA90E061E03A
:1008D00070E04CE050E00DDD8AEA90E061E070E00D
:1008E0004DE050E006DD8AEA90E061E070E04EE025
:1008F00050E0FFDCC8010197F1F7C8010197F1F75B
:10090000C8010197F1F7C8010197F1F78AEA90E071
:10091000B7014CE050E0EDDC8AEA90E0B7014DE031
:1009200050E0E7DC8AEA90E0B7014EE050E0E1DC1D
:10093000C8010197F1F7C8010197F1F7C8010197C4
:10094000F1F7C8010197F1F7C8010197F1F78AEAB9
:1009500090E061E070E049E050E0CBDC8AEA90E0B2
:1009600061E070E04AE050E0C4DC8AEA90E061E0D7
:1009700070E04BE050E0BDDCC8010197F1F7C80121
:100980000197F1F78AEA90E0B70149E050E0B1DC65
:100990008AEA90E0B7014AE050E0ABDC8AEA90E0F6
:1009A000B7014BE050E0A5DCC8010197F1F7C801A1
:1009B0000197F1F7C8010197F1F7C8010197F1F725
:1009C000C8010197F1F78AEA90E061E070E0A401C4
:1009D00090DC8AEA90E061E070E047E050E089DC7A
:1009E0008AEA90E061E070E048E050E082DCC80113
:1009F0000197F1F7C8010197F1F78AEA90E0B70192
:100A0000A40177DC8AEA90E0B70147E050E071DCAE
:100A10008AEA90E0B70148E050E06BDCC80101973A
:100A2000F1F7C8010197F1F7C8010197F1F7C80183
:100A30000197F1F7C8010197F1F78AEA90E061E0C8
:100A400070E0A70156DC8AEA90E061E070E041E0E6
:100A500050E04FDC8AEA90E061E070E042E050E074
:100A600048DCC8010197F1F7C8010197F1F78AEA5C
:100A700090E0B701A7013DDC8AEA90E0B70141E0D0
:100A800050E037DC8AEA90E0B70142E050E031DC28
:100A9000C8010197F1F7C8010197F1F7C801019763
:100AA000F1F7C8010197F1F7C8010197F1F7ADCC53
:100AB00083E0D81609F0A9CCC1E0D0E08AEA90E042
:100AC000B701AE0116DC2196CF30D105B9F7C801C8
:100AD0000197F1F7C8010197F1F7C8010197F1F704
:100AE000C8010197F1F7C8010197F1F7C801019713
:100AF000F1F7C8010197F1F7C8010197F1F7C801B3
:100B00000197F1F7C8010197F1F7C8010197F1F7D3
:100B1000C8010197F1F7C8010197F1F7C8010197E2
:100B2000F1F7C8010197F1F7C8010197F1F7C80182
:100B30000197F1F7C8010197F1F7C8010197F1F7A3
:100B4000C8010197F1F7C8010197F1F7C8010197B2
:100B5000F1F7C8010197F1F7C8010197F1F7C80152
:100B60000197F1F7C8010197F1F74FCCD52CDACCFA
:100B7000D42CD8CC04D06894B1118DC0089570D015
:100B800088F09F5790F0B92F9927B751A0F0D1F076
:100B9000660F771F881F991F1AF0BA95C9F712C000
:100BA000B13081F077D0B1E0089574C0672F782F0D
:100BB0008827B85F39F0B93FCCF38695779567956C
:100BC000B395D9F73EF490958095709561957F4FD8
:100BD0008F4F9F4F0895E89409C097FB3EF490957E
:100BE0008095709561957F4F8F4F9F4F9923A9F006
:100BF000F92F96E9BB279395F69587957795679595
:100C0000B795F111F8CFFAF4BB0F11F460FF1BC0D8
:100C10006F5F7F4F8F4F9F4F16C0882311F096E96B
:100C200011C0772321F09EE8872F762F05C0662319
:100C300071F096E8862F70E060E02AF09A95660FD2
:100C4000771F881FDAF7880F9695879597F908958B
:100C500057FD9058440F551F59F05F3F71F047956D
:100C6000880F97FB991F61F09F3F79F08795089552
:100C7000121613061406551FF2CF4695F1DF08C071
:100C8000161617061806991FF1CF8695710561058E
:100C900008940895E894BB2766277727CB0197F936
:100CA00008950AD080C071D028F076D018F095232E
:100CB00009F062C067C0EFCFCBDFA8F39923D9F367
:100CC0005523C9F3950F50E0551FAA27EE27FF279C
:100CD000BB2700240894679520F4E20FF31FB41F8C
:100CE0000A1E220F331F441FAA1F6695A9F7779586
:100CF00030F4F30FB41F0A1E121E08F46395330F6D
:100D0000441FAA1F221F769599F7879520F4B40FE8
:100D10000A1E121E631F440FAA1F221F331F86952F
:100D2000A9F7862F712D602D11249F5750408AF00E
:100D3000E1F088234AF0EE0FFF1FBB1F661F771FED
:100D4000881F91505040A9F79E3F510570F014C084
:100D5000A2CF5F3FECF3983EDCF3869577956795DD
:100D6000B795F795E7959F5FC1F7FE2B880F911D0B
:100D70009695879597F9089597F99F6780E870E0B1
:100D800060E008959FEF80EC089500240A94161601
:100D9000170618060906089500240A941216130669
:100DA000140605060895092E0394000C11F48823F7
:100DB00052F0BB0F40F4BF2B11F460FF04C06F5F13
:0C0DC0007F4F8F4F9F4F0895F894FFCF96
:100DCC00080000001000000020000000400000009F
:100DDC008000000000010000000200000004000080
:100DEC0000080000000800000004000000020000E1
:100DFC0002010000840000004800000030000000E8
:00000001FF
