:1000000010C02AC029C028C027C026C025C024C0CF
:1000100023C02FC021C020C01FC01EC01DC01CC0D7
:100020001BC011241FBECFE5D1E0DEBFCDBF10E065
:10003000A0E6B0E0E4E0FFE002C005900D92AE372C
:10004000B107D9F710E0AEE7B0E001C01D92A23DC4
:10005000B107E1F707D754C7D3CF84E086BF89B78C
:10006000826089BF83B7856083BF80B7826080BFAD
:1000700008951F920F920FB60F9211242F933F9362
:100080008F939F938091810090918200019690932D
:10009000820080938100209160003091610082177E
:1000A000930738F0109282001092810081E08093D3
:1000B000800080917E0090917F00019690937F0058
:1000C00080937E009F918F913F912F910F900FBE53
:1000D0000F901F90189584E086BF089580E886BD34
:1000E00081E086BD85B7806485BF08957F939F9327
:1000F0007BB3982F909579237BBB7BB3962F9095FC
:1001000079237BBB982F7AB3792B7ABB7AB3962F5E
:10011000792B7ABB942F909578B3792378BB77B3FA
:10012000942F792B77BBDB98D39A9F917F91089579
:100130007F939F937AB37093C7007093D1007AB383
:100140007093CA007093CB00782F70959091D10076
:1001500097239093D100762F70959091CB009723A1
:100160009093CB005F93782F962F972B90957AB32F
:1001700097239093C900592F962B9093CA00952FDF
:10018000982B9093C7008091C9005F917091CB002C
:100190007ABB9F917F9108956ABB86BBEABA6ABB1E
:1001A0000ABB86BB0895DB9A0895DB987091CA005C
:1001B0007ABB089580E060E04AE023E06BD1ACD0E8
:1001C00082E08093920084E18093950095E0909383
:1001D00096001092940080939300E2E9F0E081E0B1
:1001E0008293168210929900109298007894089544
:1001F00080918000882399F01092800080917E0089
:1002000090917F00CFD09093840080938300807082
:1002100091709093860080938500009779F70895F8
:10022000A0E0B0E0E5E1F1E03DC6C82F162FF8945C
:100230000098E82FE695E695F0E0EE0FFF1FDF014E
:10024000AE59BF4F8C9187B9009ADF01AB59BF4FB0
:10025000ED59FF4F8C9160816BDFF82ED0E0FE01ED
:10026000E758FF4FB080DD24CC24C3941EC0812FFB
:100270006F2D4091D1002091CB000091C700E090FC
:10028000CA008ADF8FB79091C800892B8FBF8091F9
:1002900078008F5F80937800823030F0823021F0D8
:1002A000833011F0C0927800D394F894DB14F9F6FF
:1002B0007ADF1DBC1CBC5D9A459B15C08FB7909121
:1002C000C800892B8FBF06C08CB59DB520E2803059
:1002D000920780F45D9BF8CF84B595B5CC0FDD1FF8
:1002E000C656DF4F0DC0CC0FDD1FC656DF4F81E075
:1002F00090E006C0CC0FDD1FC656DF4F80E090E2D5
:100300009983888352DF8FB79091C800892B8FBF64
:10031000CDB7DEB7E9E0E2C5CF93C0E003C08C2FD4
:100320009AD1CF5F8091AE00C817C8F310928A00AF
:1003300010928900DAD4CF910895FC0181E290E017
:100340009183808384E290E09383828380E095E0D0
:10035000958384830895CF93C0E003C08C2F7BD115
:10036000CF5F8091AE00C817C8F3CF910895109267
:10037000AE0084E08093920084E18093950095E044
:10038000909396001092940080939300E2E9F0E03D
:1003900081E0829383E0868309D5109299001092C0
:1003A000980008951F93CF93DF931092AC001092A2
:1003B000AB004091890050918A0090938A0080930D
:1003C000890020918B0030918C00241B350B280F65
:1003D000391FC0E003C0285C3040CF5F283C3105A6
:1003E000D0F730938C0020938B008091AD00882350
:1003F00041F08C1718F41092AD0003C08C1B809351
:10040000AD00DED4E0919800F0919900309709F0AA
:10041000099510E0D0E005C08D2F6C2F37D1182B37
:10042000DF5F5091AE00D517B8F3112349F08091EA
:10043000AB009091AC0091609093AC008093AB00C6
:100440001092AA00AFEAB0E040E081E090E018C06E
:100450002C91287199F0E42FE695E695E695F0E069
:10046000E656FF4F242F2770BC0102C0660F771F8E
:100470002A95E2F79B013089322B308B4F5F16961D
:10048000451731F78091AB009091AC00DF91CF918F
:100490001F910895CF93DF93C82FD62F3091AE00D0
:1004A000EFEAF0E0832F90E066E070E0E0D4DF0157
:1004B000A80FB91F13964C93832F90E066E070E06D
:1004C000D6D4DF01A80FB91FD770DD0FDD0FDD0F08
:1004D0001496DC93832F90E066E070E0C8D4DF01CF
:1004E000A80FB91F1596CC93832F90E066E070E0BB
:1004F000BED4DF01A80FB91F2370832F90E066E000
:1005000070E0B5D4E80FF91F84818C7F282B1496F6
:100510002C9314973F5F3093AE00DF91CF910895F5
:100520000F931F93CF93C82F90E066E070E09FD4A5
:10053000FC01E155FF4F45818C2F90E066E070E0B3
:1005400096D4FC01E155FF4F238130E000909100EB
:1005500002C0359527950A94E2F7022F243008F45B
:1005600004E08091AE00C817F0F5842FA8D39C0159
:10057000A02FB0E006950695802F90E08A1B9B0B7C
:1005800082179307A4F48C2F90E066E070E06FD49C
:100590008C0101551F4F8C2F90E066E070E067D40E
:1005A000FC01E155FF4F84818B7FF8018483B09576
:1005B000A195BF4FA217B307C4F08C2F90E066E05F
:1005C00070E055D4FC01E155FF4F8C2F90E066E0C0
:1005D00070E04DD4DC01A155BF4F14968C91149757
:1005E0008460848302C020E030E0C901CF911F9174
:1005F0000F910895CF93C82F2FEA30E090E066E086
:1006000070E035D4F901E80FF91FE5818C2F90E0F7
:1006100066E070E02CD4D901A80FB91F82E08C935A
:100620004091AB005091AC0042605093AC004093BD
:10063000AB008C2F90E066E070E019D4280F391FD2
:10064000D90112961C921297F0E0E357FF4F80E811
:100650008083CF910895CF93C82FCCDF2FEA30E06D
:100660008C2F90E066E070E002D4F901E80FF91FEA
:1006700081E080838C2F90E066E070E0F8D3280F53
:10068000391F8FE0F9018183CF910895EF92FF9296
:100690000F931F93CF93DF93C82FD62F41DF7C0199
:1006A0008C2F90E066E070E0E2D3FC01E155FF4F53
:1006B00024818C2F90E066E070E0D9D3FC01E155F5
:1006C000FF4FA381B0E0822F837090E00196AD01CF
:1006D00002C0559547958A95E2F7CA01423008F461
:1006E00082E08D01081B11098C2F90E066E070E01C
:1006F000BED3FC01E155FF4F8081843009F409C16C
:10070000853030F4813071F0823009F0D2C270C08F
:10071000803109F4C5C1803209F493C2883009F0F0
:10072000C8C242C20091AB001091AC00C8019260F7
:100730009093AC008093AB008C2F90E066E070E06B
:1007400096D3FC01E155FF4F25818C2F90E066E0A8
:1007500070E08DD3FC01E155FF4F4181822F90E085
:100760004A3080F0FC01EE0FFF1FEE55FF4FDC0119
:10077000AA0FBB1FA656BF4F8D919C9111979183D5
:1007800080831DC0DC01AA0FBB1FAE55BF4F2D914A
:100790003C911197FC01EE0FFF1FE656FF4F808141
:1007A00091818217930718F42150304005C0281713
:1007B000390758F42F5F3F4F11963C932E930860F2
:1007C00012601093AC000093AB0041508C2F90E06E
:1007D00066E070E04CD3FC01E155FF4F41834423B8
:1007E00011F48C2F07DF809193008093AD0059C2E4
:1007F00022FF18C08C2F90E066E070E038D3FC0137
:10080000E155FF4FE581F0E0E357FF4F10828C2F59
:1008100090E066E070E02BD3FC01E155FF4F80E2F1
:10082000808336C2C701F7FE02C080E090E08A17DD
:100830009B07A0F08C2F90E066E070E018D3FC01DD
:10084000E155FF4F84E080838C2F90E066E070E0FC
:100850000ED3FC01E155FF4F128225C2DD2309F4BE
:1008600028C28091AD00882309F023C28C2F90E02C
:1008700066E070E0FCD2FC01E155FF4F258130E0DD
:10088000D901AA0FBB1FAE55BF4F8D919C911197F7
:10089000F901EE0FFF1FE656FF4F40815181F9012C
:1008A000E357FF4F8417950768F420812D0F2083AD
:1008B000309196003058231708F4FBC120E82083BC
:1008C000019610C048175907D0F420812D1B2083B2
:1008D00030E840919500532F541B521708F4E9C19A
:1008E0003083019711969C938E938091AB009091E9
:1008F000AC0088609093AC008093AB00DAC180813B
:10090000813810F081508083808187FDD2C18F5F54
:10091000B4C1C701F7FE02C080E090E08A179B07D0
:1009200008F4ADC1809193008093AD008C2F90E0CE
:1009300066E070E09CD2FC01E155FF4F8C2F90E007
:1009400066E070E094D2DC01A155BF4F12968C9105
:1009500012978F5F82838C2F90E066E070E087D2E1
:10096000FC01E155FF4F048110E00873107033E083
:10097000169507953A95E1F7002309F04DC055C04B
:10098000DC1709F447C08D2F90E066E070E06FD26D
:10099000FC01E155FF4F848190E08873907023E063
:1009A000969587952A95E1F70817A1F58D2FB8DD63
:1009B0009C018D2F90E066E070E059D2FC01E1557A
:1009C000FF4F8381281B31098C2F90E066E070E097
:1009D0004ED2FC01E155FF4F8381A701481B51090D
:1009E000421753076CF08D2F90E066E070E03FD225
:1009F000FC01E155FF4F8081803111F0883051F4C6
:100A00008C2F90E066E070E032D2FC01E155FF4FA0
:100A1000128211E0DF5F02C010E0D0E08091AE00F2
:100A2000D81708F4ADCF112379F480919200882370
:100A300059F08091AB009091AC0098609093AC001D
:100A40008093AB0041E001C040E08C2F90E066E075
:100A500070E00DD2FC01E155FF4F92818091920030
:100A6000981708F427C12091AB003091AC002360A7
:100A70003093AC002093AB008C2F90E066E070E0E8
:100A8000F6D1FC01E155FF4F80E180838C2F90E08F
:100A900066E070E0ECD1FC01E155FF4F11820AC124
:100AA00022FF1EC08C2F90E066E070E0E0D1FC01D8
:100AB000E155FF4FE581F0E0E357FF4F80E8808389
:100AC0008C2F90E066E070E0D2D1FC01E155FF4F41
:100AD00080E280838091AB009091AC00906158C01F
:100AE000C701F7FE02C080E090E08017910780F414
:100AF0008C2F90E066E070E0BAD1FC01E155FF4F29
:100B000088E080838091AB009091AC00946040C0FD
:100B10008091AB009091AC0081609093AC00809389
:100B2000AB008C2F90E066E070E0A1D1FC01E155B4
:100B3000FF4F228180919200281750F48C2F90E073
:100B400066E070E094D1FC01E155FF4F2F5F2283F6
:100B500030919400332311F18C2F90E066E070E027
:100B600086D1FC01E155FF4F21818C2F231750F4D2
:100B700090E066E070E07BD1FC01E155FF4FD20FC1
:100B8000D1830CC068DD8091AB009091AC00926085
:100B90009093AC008093AB0041E001C040E08091B5
:100BA00093008093AD0086C0809193008093AD0048
:100BB0008C2F90E066E070E05AD1FC01E155FF4FC8
:100BC0008281882309F45BC0C701F7FE02C080E080
:100BD00090E008171907A8F48C2F90E066E070E009
:100BE00046D1FC01E155FF4F80E180838091AB004D
:100BF0009091AC0081609093AC008093AB0040E09A
:100C00000AC08091AB009091AC0094609093AC00CE
:100C10008093AB0041E08C2F90E066E070E027D13C
:100C2000FC01E155FF4F8C2F90E066E070E01FD192
:100C3000DC01A155BF4F12968C911297815082838F
:100C400039C08C2F90E066E070E011D1FC01E155D5
:100C5000FF4FE581F0E0E357FF4F80818F5F808396
:100C600022FD10C087FF0BC08C2F90E066E070E083
:100C7000FED0FC01E155FF4F80E180831AC08C2F2C
:100C8000B9DC17C090919700891768F08C2FE3DCCE
:100C90008091AB009091AC0090619093AC008093F8
:100CA000AB0041E007C08091AB009091AC00946034
:100CB000F4CF40E0842FCDB7DEB7E6E012C190E07C
:100CC000FC0134962AE930E0EE0FFF1FE20FF31F1C
:100CD000DC01AA0FBB1FA20FB31F808191812D9150
:100CE0003C911197821B930B08950F93CF93DF9341
:100CF00081E0809378001092CC001092CD00109289
:100D0000CE001092CF001092D0003091AE00C4EB14
:100D1000D0E020E061E070E038C0E8818E2F869559
:100D2000869590E0880F991FDC01AC59BF4FAB014D
:100D30000C9002C0440F551F0A94E2F75091CC006A
:100D4000542B5093CC008E599F4FAB01DC010C907B
:100D500002C0440F551F0A94E2F7CA019091CD00DA
:100D6000982B9093CD00E370F0E0EE0FFF1FEE0F95
:100D7000FF1FEA59FF4FA381B0E0A453BF4F8C91EE
:100D80009281892B8C932F5F2696231731F68091C1
:100D9000CD006091CC004091CE002091CF00009119
:100DA000D000A4D9DF91CF910F91089580E4809372
:100DB000790080937A0080937B0080937C00089573
:100DC000A0E0B0E0E5EEF6E06CC08FB780788093ED
:100DD000C800D3B118B10FB5FEB4EBB0ACB4BDB41C
:100DE000D0B0C7B080E483B984E088B91FBC81E883
:100DF0008EBDF894C0E020C08C2F90E066E070E0DB
:100E000036D0FC01E155FF4F8581A82FA370B0E0DB
:100E1000AA0FBB1FAA0FBB1FAA59BF4FED91FC9190
:100E20001197309719F012966C9109958FB79091A0
:100E3000C800892B8FBFCF5F8091AE00C817E0F24A
:100E4000D3B918B90FBDFEBCEBB8BDBCACBCD0B8B3
:100E5000C7B88FB79091C800892B8FBFCDB7DEB7C9
:100E6000EAE03BC03BD9F9D8A5D9C2D9FECF552776
:100E7000002480FF02C0060E571F660F771F611502
:100E8000710521F096958795009799F7952F802DFC
:100E900008952F923F924F925F926F927F928F921E
:100EA0009F92AF92BF92CF92DF92EF92FF920F93F9
:100EB0001F93CF93DF93CDB7DEB7CA1BDB0B0FB603
:100EC000F894DEBF0FBECDBF09942A8839884888C0
:100ED0005F846E847D848C849B84AA84B984C88456
:100EE000DF80EE80FD800C811B81AA81B981CE0F4D
:100EF000D11D0FB6F894DEBF0FBECDBFED01089532
:040F0000F894FFCF93
:100F0400320000010204100104020000000000008D
:0E0F14000000000000009A0001404040400034
:00000001FF
