:1000000010C02AC029C028C027C026C025C024C0CF
:1000100023C09EC121C020C01FC01EC01DC01CC067
:100020001BC011241FBECFE5D2E0DEBFCDBF10E064
:10003000A0E6B0E0E0ECF4E102C005900D92AA3F2A
:10004000B107D9F711E0AAEFB0E001C01D92AE34BC
:10005000B107E1F77AD832CAD3CF00C000C000C0E0
:1000600000C000C000C000000895D698D498DE9863
:10007000DC980895D69AF1DF1DD00895D49AEDDF6B
:10008000D698EBDFD498E9DFD69AE7DF13D008954E
:10009000082ED69AE2DF802D0DD0882311F002D0F1
:1000A000F8CF0895D49AD69AD8DFD498D6DFD698C8
:1000B000D4DF08950894881F01C0880F59F0D49A9E
:1000C00018F40000D69802C0D69A00C0C6DFD498B3
:1000D000C4DFF3CFD49AD698C0DFD498CC9BFECFA0
:1000E0008827CE9981E0B9DF99270895882701C034
:1000F00081E071E0D49AD698B0DFD498AEDFCC9B83
:10010000FECF8894CE990894771FA0F7D49A8130B7
:1001100011F0D69801C0D69AA0DFD498CC9BFECF20
:100120009CDF872F99270895CF93DF93D82FA2DFE5
:1001300080E0C0DF80E8BEDFB5DF8FE19EE401979D
:10014000F1F700C000008D2F95DF80E0B3DF80E283
:10015000B1DFA8DF8FE19EE40197F1F700C0000056
:100160008D2F88DF81E0A6DF80E1A4DF9BDF8FE1B8
:100170009EE40197F1F700C00000C6E08D2F7ADF02
:100180008C2F98DF80E096DF80E094DF80E192DFC3
:1001900080E590DF87DF8FE19EE40197F1F700C0F3
:1001A0000000CC5FC63451F7DF91CF910895CF9214
:1001B000DF92FF920F931F93CF93DF930F92CDB7F0
:1001C000DEB7F82E0CE910E096E08F2D998352DF10
:1001D0009981892F6FDF80E06DDF80E06BDF680140
:1001E000F801808167DF0C5F1F4FF601818162DFBC
:1001F00059DF2FEF36E741E0215030404040E1F732
:1002000000C0000099819C5F9634F9F60F90DF9151
:10021000CF911F910F91FF90DF90CF900895CF92D3
:10022000DF92EF92FF92CF93DF9300D0CDB7DEB78E
:100230006A017B0190E0C91690E1D90690E0E906D9
:1002400090E0F90634F09FEFC92E9FE0D92EE12C03
:10025000F12C29833A830EDF2981822F3A81932F53
:100260008031910514F08FE090E0880F880F8A5F4D
:1002700021DF80E01FDF80E01DDF8C2D1BDF8D2D57
:1002800019DF10DF0F900F90DF91CF91FF90EF906B
:10029000DF90CF900895EF92FF920F931F93CF932B
:1002A000DF938C01EA017A01EE0CFF1CEE0CFF1CBF
:1002B000161617065CF0F701E456FF4F1082118204
:1002C0001282138240E050E0BA0124C06436710506
:1002D00064F0F701E456FF4F1082118212821382FC
:1002E0004FEF5FE060E070E015C0882777FD8095F4
:1002F000982FA4D72AE037ED43E252E403D86BD716
:10030000AB01BC01F701E456FF4F40835183628388
:100310007383C8019E0183DFDF91CF911F910F91FD
:10032000FF90EF900895A6DE8CEFC4DE80E0C2DE81
:1003300080E1C0DEB7DE089584E086BF89B78260C1
:1003400089BF83B7856083BF80B7826080BF08950F
:100350001F920F920FB60F9211242F933F938F93FA
:100360009F938091FD009091FE0001969093FE0076
:100370008093FD002091DC003091DD00821793070F
:1003800038F01092FE001092FD0081E08093FC0096
:100390008091FA009091FB0001969093FB0080936E
:1003A000FA009F918F913F912F910F900FBE0F9068
:1003B0001F90189584E086BF089580E886BD81E08F
:1003C00086BD85B7806485BF08957F939F937BB377
:1003D000982F909579237BBB7BB3962F90957923AB
:1003E0007BBB982F7AB3792B7ABB7AB3962F792B74
:1003F0007ABB942F909578B3792378BB77B3942FF9
:10040000792B77BBDB98D39A9F917F9108957F9347
:100410009F937AB37093430170934D017AB37093B5
:10042000460170934701782F709590914D01972365
:1004300090934D01762F709590914701972390935B
:1004400047015F93782F962F972B90957AB3972338
:1004500090934501592F962B90934601952F982BF9
:1004600090934301809145015F91709147017ABB60
:100470009F917F9108956ABB86BBEABA6ABB0ABBAB
:1004800086BB0895DB9A0895DB98709146017ABB8C
:10049000089580E060E04AE123E06FD1B0D082E0CF
:1004A00080930E0184E18093110195E090931201F5
:1004B0001092100180930F01EEE0F1E081E0829351
:1004C000168210921501109214017894089580916B
:1004D000FC00882399F01092FC008091FA00909122
:1004E000FB00D3D0909300018093FF008070917047
:1004F0009093020180930101009779F78091FF00AA
:10050000909100010895A0E0B0E0E8E8F2E0A8C70B
:10051000C82F162FF8940098E82FE695E695F0E09E
:10052000EE0FFF1FDF01A252BF4F8C9187B9009AD7
:10053000DF01AF51BF4FE152FF4F8C91608167DF08
:10054000F82ED0E0FE01EB50FF4FB080DD24CC242C
:10055000C3941EC0812F6F2D40914D012091470102
:1005600000914301E090460186DF8FB790914401EE
:10057000892B8FBF8091F4008F5F8093F4008230CD
:1005800030F0823021F0833011F0C092F400D39427
:10059000F894DB14F9F676DF1DBC1CBC5D9A459B14
:1005A00015C08FB790914401892B8FBF06C08CB5C1
:1005B0009DB520E28030920780F45D9BF8CF84B532
:1005C00095B5CC0FDD1FCA5EDE4F0DC0CC0FDD1F11
:1005D000CA5EDE4F81E090E006C0CC0FDD1FCA5E30
:1005E000DE4F80E090E2998388834EDF8FB7909151
:1005F0004401892B8FBFCDB7DEB7E9E04DC7CF935C
:10060000C0E003C08C2F9AD1CF5F80912A01C81718
:10061000C8F31092060110920501DAD4CF91089523
:10062000FC0181E290E09183808384E290E09383F7
:10063000828380E095E0958384830895CF93C0E022
:1006400003C08C2F7BD1CF5F80912A01C817C8F3DC
:10065000CF91089510922A0184E080930E0184E1E5
:100660008093110195E090931201109210018093F4
:100670000F01EEE0F1E081E0829383E0868309D50B
:10068000109215011092140108951F93CF93DF93D8
:100690001092280110922701409105015091060106
:1006A0009093060180930501209107013091080184
:1006B000241B350B280F391FC0E003C0285C3040D5
:1006C000CF5F283C3105D0F7309308012093070114
:1006D00080912901882341F08C1718F41092290188
:1006E00003C08C1B80932901DED4E0911401F091AA
:1006F0001501309709F0099510E0D0E005C08D2F65
:100700006C2F37D1182BDF5F50912A01D517B8F322
:10071000112349F0809127019091280191609093D5
:1007200028018093270110922601ABE2B1E040E05E
:1007300081E090E018C02C91287199F0E42FE695A3
:10074000E695E695F0E0EA5EFE4F242F2770BC01A7
:1007500002C0660F771F2A95E2F79B013089322B82
:10076000308B4F5F1696451731F780912701909196
:100770002801DF91CF911F910895CF93DF93C82F68
:10078000D62F30912A01EBE2F1E0832F90E066E072
:1007900070E04BD6DF01A80FB91F13964C93832F3F
:1007A00090E066E070E041D6DF01A80FB91FD77076
:1007B000DD0FDD0FDD0F1496DC93832F90E066E0F4
:1007C00070E033D6DF01A80FB91F1596CC93832FA5
:1007D00090E066E070E029D6DF01A80FB91F237012
:1007E000832F90E066E070E020D6E80FF91F848147
:1007F0008C7F282B14962C9314973F5F30932A01FB
:10080000DF91CF9108950F931F93CF93C82F90E05E
:1008100066E070E00AD6FC01E55DFE4F45818C2F55
:1008200090E066E070E001D6FC01E55DFE4F2381BB
:1008300030E000900D0102C0359527950A94E2F74B
:10084000022F243008F404E080912A01C817F0F543
:10085000842FA8D39C01A02FB0E006950695802F89
:1008600090E08A1B9B0B82179307A4F48C2F90E0D7
:1008700066E070E0DAD58C01055D1E4F8C2F90E0AC
:1008800066E070E0D2D5FC01E55DFE4F84818B7F90
:10089000F8018483B095A195BF4FA217B307C4F0A8
:1008A0008C2F90E066E070E0C0D5FC01E55DFE4F66
:1008B0008C2F90E066E070E0B8D5DC01A55DBE4FFE
:1008C00014968C9114978460848302C020E030E0F9
:1008D000C901CF911F910F910895CF93C82F2BE29B
:1008E00031E090E066E070E0A0D5F901E80FF91F73
:1008F000E5818C2F90E066E070E097D5D901A80FD4
:10090000B91F82E08C9340912701509128014260E9
:1009100050932801409327018C2F90E066E070E00F
:1009200084D5280F391FD90112961C921297F0E036
:10093000E75FFE4F80E88083CF910895CF93C82F63
:10094000CCDF2BE231E08C2F90E066E070E06DD5DB
:10095000F901E80FF91F81E080838C2F90E066E0B9
:1009600070E063D5280F391F8FE0F9018183CF91A3
:100970000895EF92FF920F931F93CF93DF93C82FA9
:10098000D62F41DF7C018C2F90E066E070E04DD5E2
:10099000FC01E55DFE4F24818C2F90E066E070E065
:1009A00044D5FC01E55DFE4FA381B0E0822F83704A
:1009B00090E00196AD0102C0559547958A95E2F702
:1009C000CA01423008F482E08D01081B11098C2F06
:1009D00090E066E070E029D5FC01E55DFE4F808186
:1009E000843009F409C1853030F4813071F08230EF
:1009F00009F0D2C270C0803109F4C5C1803209F457
:100A000093C2883009F0C8C242C2009127011091F8
:100A10002801C801926090932801809327018C2FB0
:100A200090E066E070E001D5FC01E55DFE4F2581B8
:100A30008C2F90E066E070E0F8D4FC01E55DFE4F9D
:100A40004181822F90E04A3080F0FC01EE0FFF1FC1
:100A5000E25EFE4FDC01AA0FBB1FAA5EBE4F8D9166
:100A60009C911197918380831DC0DC01AA0FBB1F4D
:100A7000A25EBE4F2D913C911197FC01EE0FFF1F1E
:100A8000EA5EFE4F808191818217930718F421500E
:100A9000304005C02817390758F42F5F3F4F119693
:100AA0003C932E9308601260109328010093270155
:100AB00041508C2F90E066E070E0B7D4FC01E55D1A
:100AC000FE4F4183442311F48C2F07DF80910F01E7
:100AD0008093290159C222FF18C08C2F90E066E054
:100AE00070E0A3D4FC01E55DFE4FE581F0E0E75F37
:100AF000FE4F10828C2F90E066E070E096D4FC01EF
:100B0000E55DFE4F80E2808336C2C701F7FE02C07A
:100B100080E090E08A179B07A0F08C2F90E066E0C1
:100B200070E083D4FC01E55DFE4F84E080838C2F70
:100B300090E066E070E079D4FC01E55DFE4F128242
:100B400025C2DD2309F428C280912901882309F0F8
:100B500023C28C2F90E066E070E067D4FC01E55D75
:100B6000FE4F258130E0D901AA0FBB1FA25EBE4F08
:100B70008D919C911197F901EE0FFF1FEA5EFE4FD8
:100B800040815181F901E75FFE4F8417950768F4B2
:100B900020812D0F2083309112013058231708F443
:100BA000FBC120E82083019610C048175907D0F4F4
:100BB00020812D1B208330E840911101532F541BBD
:100BC000521708F4E9C13083019711969C938E93D4
:100BD000809127019091280188609093280180934B
:100BE0002701DAC18081813810F0815080838081B3
:100BF00087FDD2C18F5FB4C1C701F7FE02C080E09C
:100C000090E08A179B0708F4ADC180910F01809393
:100C100029018C2F90E066E070E007D4FC01E55DCF
:100C2000FE4F8C2F90E066E070E0FFD3DC01A55D05
:100C3000BE4F12968C9112978F5F82838C2F90E01B
:100C400066E070E0F2D3FC01E55DFE4F048110E048
:100C50000873107033E0169507953A95E1F7002375
:100C600009F04DC055C0DC1709F447C08D2F90E046
:100C700066E070E0DAD3FC01E55DFE4F848190E030
:100C80008873907023E0969587952A95E1F7081769
:100C9000A1F58D2FB8DD9C018D2F90E066E070E00E
:100CA000C4D3FC01E55DFE4F8381281B31098C2FE5
:100CB00090E066E070E0B9D3FC01E55DFE4F838112
:100CC000A701481B5109421753076CF08D2F90E084
:100CD00066E070E0AAD3FC01E55DFE4F80818031C3
:100CE00011F0883051F48C2F90E066E070E09DD3D5
:100CF000FC01E55DFE4F128211E0DF5F02C010E0F3
:100D0000D0E080912A01D81708F4ADCF112379F4EF
:100D100080910E01882359F080912701909128013C
:100D20009860909328018093270141E001C040E042
:100D30008C2F90E066E070E078D3FC01E55DFE4F1B
:100D4000928180910E01981708F427C12091270104
:100D500030912801236030932801209327018C2FA4
:100D600090E066E070E061D3FC01E55DFE4F80E15C
:100D700080838C2F90E066E070E057D3FC01E55D46
:100D8000FE4F11820AC122FF1EC08C2F90E066E048
:100D900070E04BD3FC01E55DFE4FE581F0E0E75FDD
:100DA000FE4F80E880838C2F90E066E070E03DD3BA
:100DB000FC01E55DFE4F80E28083809127019091E8
:100DC0002801906158C0C701F7FE02C080E090E0A2
:100DD0008017910780F48C2F90E066E070E025D3B7
:100DE000FC01E55DFE4F88E08083809127019091B2
:100DF0002801946040C08091270190912801816072
:100E000090932801809327018C2F90E066E070E09A
:100E10000CD3FC01E55DFE4F228180910E01281765
:100E200050F48C2F90E066E070E0FFD2FC01E55DAD
:100E3000FE4F2F5F228330911001332311F18C2F4D
:100E400090E066E070E0F1D2FC01E55DFE4F2181AB
:100E50008C2F231750F490E066E070E0E6D2FC019E
:100E6000E55DFE4FD20FD1830CC068DD8091270174
:100E7000909128019260909328018093270141E08E
:100E800001C040E080910F018093290186C08091CC
:100E90000F01809329018C2F90E066E070E0C5D2AD
:100EA000FC01E55DFE4F8281882309F45BC0C70128
:100EB000F7FE02C080E090E008171907A8F48C2F15
:100EC00090E066E070E0B1D2FC01E55DFE4F80E1AC
:100ED000808380912701909128018160909328015F
:100EE0008093270140E00AC080912701909128015A
:100EF0009460909328018093270141E08C2F90E02B
:100F000066E070E092D2FC01E55DFE4F8C2F90E030
:100F100066E070E08AD2DC01A55DBE4F12968C912E
:100F200012978150828339C08C2F90E066E070E088
:100F30007CD2FC01E55DFE4FE581F0E0E75FFE4F0E
:100F400080818F5F808322FD10C087FF0BC08C2FB4
:100F500090E066E070E069D2FC01E55DFE4F80E163
:100F600080831AC08C2FB9DC17C0909113018917A8
:100F700068F08C2FE3DC809127019091280190612B
:100F8000909328018093270141E007C080912701B9
:100F9000909128019460F4CF40E0842FCDB7DEB764
:100FA000E6E07DC290E0FC01349626E131E0EE0FF0
:100FB000FF1FE20FF31FDC01AA0FBB1FA20FB31F1D
:100FC000808191812D913C911197821B930B089503
:100FD0000F93CF93DF9381E08093F4001092480148
:100FE0001092490110924A0110924B0110924C014B
:100FF00030912A01C0E3D1E020E061E070E038C028
:10100000E8818E2F8695869590E0880F991FDC01E8
:10101000A052BF4FAB010C9002C0440F551F0A9461
:10102000E2F750914801542B5093480182529F4F50
:10103000AB01DC010C9002C0440F551F0A94E2F78B
:10104000CA0190914901982B90934901E370F0E017
:10105000EE0FFF1FEE0FFF1FEE51FF4FA381B0E019
:10106000A85BBE4F8C919281892B8C932F5F269623
:10107000231731F6809149016091480140914A015E
:1010800020914B0100914C01A0D9DF91CF910F919C
:10109000089580E48093F5008093F6008093F70034
:1010A0008093F8000895A0E0B0E0E8E5F8E0D7C14B
:1010B0008FB7807880934401D3B118B10FB5FEB4D7
:1010C000EBB0ACB4BDB4D0B0C7B080E483B984E0B9
:1010D00088B91FBC81E88EBDF894C0E020C08C2F79
:1010E00090E066E070E0A1D1FC01E55DFE4F8581F6
:1010F000A82FA370B0E0AA0FBB1FAA0FBB1FAE5151
:10110000BF4FED91FC911197309719F012966C91A9
:1011100009958FB790914401892B8FBFCF5F809144
:101120002A01C817E0F2D3B918B90FBDFEBCEBB85D
:10113000BDBCACBCD0B8C7B88FB790914401892B67
:101140008FBFCDB7DEB7EAE0A6C137D9F5D8A1D9B0
:101150008CD78FEF96E7A1E081509040A040E1F757
:1011600000C000008AEA90E0DFD78FEF96E7A1E0A9
:1011700081509040A040E1F700C000008AEA90E072
:1011800062E370E04FE050E086D87894A0D98130D7
:101190009105E1F78AEA90E060E070E04FE050E00E
:1011A0007AD88FEF91EEA4E081509040A040E1F713
:1011B00000C000008AEA90E062E370E04FE050E097
:1011C0006AD88FEF91EEA4E081509040A040E1F703
:1011D00000C00000DBCF04D06894B1118DC0089529
:1011E00070D088F09F5790F0B92F9927B751A0F091
:1011F000D1F0660F771F881F991F1AF0BA95C9F7AB
:1012000012C0B13081F077D0B1E0089574C0672F7B
:10121000782F8827B85F39F0B93FCCF3869577955A
:101220006795B395D9F73EF4909580957095619543
:101230007F4F8F4F9F4F0895E89409C097FB3EF46E
:1012400090958095709561957F4F8F4F9F4F992313
:10125000A9F0F92F96E9BB279395F6958795779591
:101260006795B795F111F8CFFAF4BB0F11F460FF51
:101270001BC06F5F7F4F8F4F9F4F16C0882311F0A9
:1012800096E911C0772321F09EE8872F762F05C0BD
:10129000662371F096E8862F70E060E02AF09A9558
:1012A000660F771F881FDAF7880F9695879597F94D
:1012B000089557FD9058440F551F59F05F3F71F046
:1012C0004795880F97FB991F61F09F3F79F08795AD
:1012D0000895121613061406551FF2CF4695F1DF36
:1012E00008C0161617061806991FF1CF86957105C6
:1012F000610508940895E894BB2766277727CB01FA
:1013000097F908950AD080C071D028F076D018F0EF
:10131000952309F062C067C0EFCFCBDFA8F3992314
:10132000D9F35523C9F3950F50E0551FAA27EE278F
:10133000FF27BB2700240894679520F4E20FF31FD2
:10134000B41F0A1E220F331F441FAA1F6695A9F758
:10135000779530F4F30FB41F0A1E121E08F463953C
:10136000330F441FAA1F221F769599F7879520F403
:10137000B40F0A1E121E631F440FAA1F221F331F21
:101380008695A9F7862F712D602D11249F57504007
:101390008AF0E1F088234AF0EE0FFF1FBB1F661FA3
:1013A000771F881F91505040A9F79E3F510570F05C
:1013B00014C0A2CF5F3FECF3983EDCF3869577959F
:1013C0006795B795F795E7959F5FC1F7FE2B880F57
:1013D000911D9695879597F9089597F99F6780E8ED
:1013E00070E060E008959FEF80EC089500240A9477
:1013F0001616170618060906089500240A941216F0
:101400001306140605060895092E0394000C11F422
:10141000882352F0BB0F40F4BF2B11F460FF04C0CF
:101420006F5F7F4F8F4F9F4F08955527002480FF98
:1014300002C0060E571F660F771F6115710521F058
:1014400096958795009799F7952F802D08952F925F
:101450003F924F925F926F927F928F929F92AF9244
:10146000BF92CF92DF92EF92FF920F931F93CF9391
:10147000DF93CDB7DEB7CA1BDB0B0FB6F894DEBF28
:101480000FBECDBF09942A88398848885F846E844E
:101490007D848C849B84AA84B984C884DF80EE8098
:1014A000FD800C811B81AA81B981CE0FD11D0FB6A1
:1014B000F894DEBF0FBECDBFED010895F894FFCFC5
:1014C0000000000003000000060000000C00000007
:1014D00018000000060000000C00000018000000CA
:1014E00000000000030000001800000000000000E1
:1014F00003000000060000000C00000008000000CF
:1015000010000000200000004000000080000000EB
:1015100000010000000200000004000000080000BC
:1015200000080000000400000002000002010000AA
:10153000840000004800000030000000320000017C
:10154000020483020402000000000000000000000A
:0A1550000000160101404040400079
:00000001FF
