:1000000010C02AC029C028C027C026C025C024C0CF
:1000100023C0E8C121C020C01FC01EC01DC01CC01D
:100020001BC011241FBECFE5D2E0DEBFCDBF11E063
:10003000A0E6B0E0ECE6FDE102C005900D92A03034
:10004000B107D9F711E0A0E0B1E001C01D92A435DD
:10005000B107E1F7C4D888CED3CF00C000C000C03C
:1000600000C000C000C000000895D698D498DE9863
:10007000DC980895D69AF1DF1DD00895D49AEDDF6B
:10008000D698EBDFD498E9DFD69AE7DF13D008954E
:10009000082ED69AE2DF802D0DD0882311F002D0F1
:1000A000F8CF0895D49AD69AD8DFD498D6DFD698C8
:1000B000D4DF08950894881F01C0880F59F0D49A9E
:1000C00018F40000D69802C0D69A00C0C6DFD498B3
:1000D000C4DFF3CFD49AD698C0DFD498CC9BFECFA0
:1000E0008827CE9981E0B9DF99270895882701C034
:1000F00081E071E0D49AD698B0DFD498AEDFCC9B83
:10010000FECF8894CE990894771FA0F7D49A8130B7
:1001100011F0D69801C0D69AA0DFD498CC9BFECF20
:100120009CDF872F99270895CF93DF93D82FA2DFE5
:1001300080E0C0DF80E8BEDFB5DF8FE19EE401979D
:10014000F1F700C000008D2F95DF80E0B3DF80E283
:10015000B1DFA8DF8FE19EE40197F1F700C0000056
:100160008D2F88DF81E0A6DF80E1A4DF9BDF8FE1B8
:100170009EE40197F1F700C00000C6E08D2F7ADF02
:100180008C2F98DF80E096DF80E094DF80E192DFC3
:1001900080E590DF87DF8FE19EE40197F1F700C0F3
:1001A0000000CC5FC63451F7DF91CF910895CF9214
:1001B000DF92FF920F931F93CF93DF930F92CDB7F0
:1001C000DEB7F82E0CE910E096E08F2D998352DF10
:1001D0009981892F6FDF80E06DDF80E06BDF680140
:1001E000F801808167DF0C5F1F4FF601818162DFBC
:1001F00059DF2FEF36E741E0215030404040E1F732
:1002000000C0000099819C5F9634F9F60F90DF9151
:10021000CF911F910F91FF90DF90CF900895CF92D3
:10022000DF92EF92FF92CF93DF9300D0CDB7DEB78E
:100230006A017B0190E0C91690E1D90690E0E906D9
:1002400090E0F90634F09FEFC92E9FE0D92EE12C03
:10025000F12C29833A830EDF2981822F3A81932F53
:100260008031910514F08FE090E0880F880F8A5F4D
:1002700021DF80E01FDF80E01DDF8C2D1BDF8D2D57
:1002800019DF10DF0F900F90DF91CF91FF90EF906B
:10029000DF90CF9008950F931F93CF93DF93EB01DF
:1002A0008B01000F111F000F111F181619066CF09B
:1002B000F801E456FF4F10821182128213828AEAFB
:1002C00090E040E050E0BA0129C08436910574F016
:1002D000F801E456FF4F10821182128213828AEADB
:1002E00090E04FEF5FE060E070E018C09C01B90162
:1002F000882777FD8095982FF7DB2AE037ED43E2DA
:1003000052E456DCBEDBAB01BC01F801E456FF4F02
:1003100040835183628373838AEA90E09E017FDF8A
:10032000DF91CF911F910F910895EF92FF920F935C
:100330001F93CF93DF938C01EA017A01EE0CFF1C2F
:10034000EE0CFF1C161617065CF0F701E456FF4F83
:10035000108211821282138240E050E0BA0124C060
:100360006436710564F0F701E456FF4F1082118284
:10037000128213824FEF5FE060E070E015C08827C3
:1003800077FD8095982FB0DB2AE037ED43E252E409
:100390000FDC77DBAB01BC01F701E456FF4F408374
:1003A000518362837383C8019E0139DFDF91CF914E
:1003B0001F910F91FF90EF9008955CDE8CEF7ADE35
:1003C00080E078DE80E176DE6DDE089584E086BF31
:1003D00089B7826089BF83B7856083BF80B7826039
:1003E00080BF08951F920F920FB60F9211242F9382
:1003F0003F938F939F938091030190910401019605
:1004000090930401809303012091DC003091DD0082
:100410008217930738F0109204011092030181E0D3
:1004200080930201809100019091010101969093C7
:100430000101809300019F918F913F912F910F9027
:100440000FBE0F901F90189584E086BF089580E836
:1004500086BD81E086BD85B7806485BF08957F93A2
:100460009F937BB3982F909579237BBB7BB3962F7B
:10047000909579237BBB982F7AB3792B7ABB7AB38B
:10048000962F792B7ABB942F909578B3792378BBEC
:1004900077B3942F792B77BBDB98D39A9F917F9179
:1004A00008957F939F937AB370934901709353019A
:1004B0007AB370934C0170934D01782F70959091A1
:1004C0005301972390935301762F709590914D018E
:1004D000972390934D015F93782F962F972B9095AC
:1004E0007AB3972390934B01592F962B90934C01FD
:1004F000952F982B9093490180914B015F917091BA
:100500004D017ABB9F917F9108956ABB86BBEABA81
:100510006ABB0ABB86BB0895DB9A0895DB9870918D
:100520004C017ABB089580E060E04AE123E06FD19E
:10053000B0D082E08093140184E18093170195E0AC
:10054000909318011092160180931501E4E1F1E0F7
:1005500081E08293168210921B0110921A01789406
:10056000089580910201882399F0109202018091F0
:10057000000190910101D3D0909306018093050171
:10058000807091709093080180930701009779F72C
:1005900080910501909106010895A0E0B0E0E2EDA0
:1005A000F2E0B4CBC82F162FF8940098E82FE69508
:1005B000E695F0E0EE0FFF1FDF01AC51BF4F8C91CD
:1005C00087B9009ADF01A951BF4FEB51FF4F8C91C2
:1005D000608167DFF82ED0E0FE01E550FF4FB0806C
:1005E000DD24CC24C3941EC0812F6F2D4091530174
:1005F00020914D0100914901E0904C0186DF8FB7B9
:1006000090914A01892B8FBF8091FA008F5F809370
:10061000FA00823030F0823021F0833011F0C09245
:10062000FA00D394F894DB14F9F676DF1DBC1CBCF9
:100630005D9A459B15C08FB790914A01892B8FBF5A
:1006400006C08CB59DB520E28030920780F45D9B9A
:10065000F8CF84B595B5CC0FDD1FC45EDE4F0DC05D
:10066000CC0FDD1FC45EDE4F81E090E006C0CC0FF2
:10067000DD1FC45EDE4F80E090E2998388834EDF09
:100680008FB790914A01892B8FBFCDB7DEB7E9E0D4
:1006900059CBCF93C0E003C08C2F9AD1CF5F80910C
:1006A0003001C817C8F310920C0110920B01DAD474
:1006B000CF910895FC0181E290E09183808384E2F0
:1006C00090E09383828380E095E09583848308950E
:1006D000CF93C0E003C08C2F7BD1CF5F80913001DE
:1006E000C817C8F3CF9108951092300184E0809329
:1006F000140184E18093170195E090931801109202
:10070000160180931501E4E1F1E081E0829383E03A
:10071000868309D510921B0110921A0108951F9328
:10072000CF93DF9310922E0110922D0140910B0177
:1007300050910C0190930C0180930B0120910D01BD
:1007400030910E01241B350B280F391FC0E003C068
:10075000285C3040CF5F283C3105D0F730930E0144
:1007600020930D0180912F01882341F08C1718F4FC
:1007700010922F0103C08C1B80932F01DED4E091D7
:100780001A01F0911B01309709F0099510E0D0E0B3
:1007900005C08D2F6C2F37D1182BDF5F50913001A2
:1007A000D517B8F3112349F080912D0190912E01B6
:1007B000916090932E0180932D0110922C01A1E362
:1007C000B1E040E081E090E018C02C91287199F0F0
:1007D000E42FE695E695E695F0E0E45EFE4F242FE3
:1007E0002770BC0102C0660F771F2A95E2F79B01B4
:1007F0003089322B308B4F5F1696451731F7809139
:100800002D0190912E01DF91CF911F910895CF93EB
:10081000DF93C82FD62F30913001E1E3F1E0832F31
:1008200090E066E070E057DADF01A80FB91F139679
:100830004C93832F90E066E070E04DDADF01A80F63
:10084000B91FD770DD0FDD0FDD0F1496DC93832FFA
:1008500090E066E070E03FDADF01A80FB91F15965F
:10086000CC93832F90E066E070E035DADF01A80FCB
:10087000B91F2370832F90E066E070E02CDAE80F58
:10088000F91F84818C7F282B14962C9314973F5F3B
:1008900030933001DF91CF9108950F931F93CF9341
:1008A000C82F90E066E070E016DAFC01EF5CFE4FC6
:1008B00045818C2F90E066E070E00DDAFC01EF5C82
:1008C000FE4F238130E00090130102C0359527953B
:1008D0000A94E2F7022F243008F404E080913001FA
:1008E000C817F0F5842FA8D39C01A02FB0E006957F
:1008F0000695802F90E08A1B9B0B82179307A4F428
:100900008C2F90E066E070E0E6D98C010F5C1E4F02
:100910008C2F90E066E070E0DED9FC01EF5CFE4FCA
:1009200084818B7FF8018483B095A195BF4FA21776
:10093000B307C4F08C2F90E066E070E0CCD9FC01E6
:10094000EF5CFE4F8C2F90E066E070E0C4D9DC01D4
:10095000AF5CBE4F14968C9114978460848302C060
:1009600020E030E0C901CF911F910F910895CF93FE
:10097000C82F21E331E090E066E070E0ACD9F901E6
:10098000E80FF91FE5818C2F90E066E070E0A3D9B5
:10099000D901A80FB91F82E08C9340912D0150918D
:1009A0002E01426050932E0140932D018C2F90E038
:1009B00066E070E090D9280F391FD90112961C9279
:1009C0001297F0E0E15FFE4F80E88083CF910895B9
:1009D000CF93C82FCCDF21E331E08C2F90E066E08D
:1009E00070E079D9F901E80FF91F81E080838C2F3D
:1009F00090E066E070E06FD9280F391F8FE0F901B1
:100A00008183CF910895EF92FF920F931F93CF931D
:100A1000DF93C82FD62F41DF7C018C2F90E066E05A
:100A200070E059D9FC01EF5CFE4F24818C2F90E0DF
:100A300066E070E050D9FC01EF5CFE4FA381B0E0AE
:100A4000822F837090E00196AD0102C055954795C5
:100A50008A95E2F7CA01423008F482E08D01081B52
:100A600011098C2F90E066E070E035D9FC01EF5C55
:100A7000FE4F8081843009F409C1853030F4813023
:100A800071F0823009F0D2C270C0803109F4C5C162
:100A9000803209F493C2883009F0C8C242C2009182
:100AA0002D0110912E01C801926090932E01809328
:100AB0002D018C2F90E066E070E00DD9FC01EF5C19
:100AC000FE4F25818C2F90E066E070E004D9FC0198
:100AD000EF5CFE4F4181822F90E04A3080F0FC01B4
:100AE000EE0FFF1FEC5DFE4FDC01AA0FBB1FA45EE3
:100AF000BE4F8D919C911197918380831DC0DC0125
:100B0000AA0FBB1FAC5DBE4F2D913C911197FC010C
:100B1000EE0FFF1FE45EFE4F8081918182179307E5
:100B200018F42150304005C02817390758F42F5FBA
:100B30003F4F11963C932E930860126010932E0144
:100B400000932D0141508C2F90E066E070E0C3D8F7
:100B5000FC01EF5CFE4F4183442311F48C2F07DF2F
:100B60008091150180932F0159C222FF18C08C2F4C
:100B700090E066E070E0AFD8FC01EF5CFE4FE581ED
:100B8000F0E0E15FFE4F10828C2F90E066E070E0B5
:100B9000A2D8FC01EF5CFE4F80E2808336C2C70121
:100BA000F7FE02C080E090E08A179B07A0F08C2F30
:100BB00090E066E070E08FD8FC01EF5CFE4F84E0CF
:100BC00080838C2F90E066E070E085D8FC01EF5CBC
:100BD000FE4F128225C2DD2309F428C280912F0125
:100BE000882309F023C28C2F90E066E070E073D870
:100BF000FC01EF5CFE4F258130E0D901AA0FBB1F3D
:100C0000AC5DBE4F8D919C911197F901EE0FFF1FC6
:100C1000E45EFE4F40815181F901E15FFE4F841790
:100C2000950768F420812D0F2083309118013058EA
:100C3000231708F4FBC120E82083019610C0481751
:100C40005907D0F420812D1B208330E840911701F3
:100C5000532F541B521708F4E9C1308301971196A2
:100C60009C938E9380912D0190912E01886090939A
:100C70002E0180932D01DAC18081813810F08150DE
:100C80008083808187FDD2C18F5FB4C1C701F7FE29
:100C900002C080E090E08A179B0708F4ADC1809104
:100CA000150180932F018C2F90E066E070E013D83F
:100CB000FC01EF5CFE4F8C2F90E066E070E00BD8FB
:100CC000DC01AF5CBE4F12968C9112978F5F8283CE
:100CD0008C2F90E066E070E0FED7FC01EF5CFE4FE9
:100CE000048110E00873107033E0169507953A956B
:100CF000E1F7002309F04DC055C0DC1709F447C0E7
:100D00008D2F90E066E070E0E6D7FC01EF5CFE4FCF
:100D1000848190E08873907023E0969587952A955A
:100D2000E1F70817A1F58D2FB8DD9C018D2F90E01C
:100D300066E070E0D0D7FC01EF5CFE4F8381281B9A
:100D400031098C2F90E066E070E0C5D7FC01EF5CC4
:100D5000FE4F8381A701481B5109421753076CF0CE
:100D60008D2F90E066E070E0B6D7FC01EF5CFE4F9F
:100D70008081803111F0883051F48C2F90E066E052
:100D800070E0A9D7FC01EF5CFE4F128211E0DF5F3B
:100D900002C010E0D0E080913001D81708F4ADCF48
:100DA000112379F480911401882359F080912D0149
:100DB00090912E01986090932E0180932D0141E037
:100DC00001C040E08C2F90E066E070E084D7FC0129
:100DD000EF5CFE4F928180911401981708F427C1AF
:100DE00020912D0130912E01236030932E0120930C
:100DF0002D018C2F90E066E070E06DD7FC01EF5C78
:100E0000FE4F80E180838C2F90E066E070E063D736
:100E1000FC01EF5CFE4F11820AC122FF1EC08C2F25
:100E200090E066E070E057D7FC01EF5CFE4FE58193
:100E3000F0E0E15FFE4F80E880838C2F90E066E079
:100E400070E049D7FC01EF5CFE4F80E28083809127
:100E50002D0190912E01906158C0C701F7FE02C08C
:100E600080E090E08017910780F48C2F90E066E09E
:100E700070E031D7FC01EF5CFE4F88E08083809109
:100E80002D0190912E01946040C080912D01909190
:100E90002E01816090932E0180932D018C2F90E084
:100EA00066E070E018D7FC01EF5CFE4F2281809174
:100EB0001401281750F48C2F90E066E070E00BD7F7
:100EC000FC01EF5CFE4F2F5F22833091160133232C
:100ED00011F18C2F90E066E070E0FDD6FC01EF5C34
:100EE000FE4F21818C2F231750F490E066E070E0D4
:100EF000F2D6FC01EF5CFE4FD20FD1830CC068DD4F
:100F000080912D0190912E01926090932E018093FB
:100F10002D0141E001C040E08091150180932F0137
:100F200086C08091150180932F018C2F90E066E0A0
:100F300070E0D1D6FC01EF5CFE4F8281882309F47A
:100F40005BC0C701F7FE02C080E090E008171907F8
:100F5000A8F48C2F90E066E070E0BDD6FC01EF5C59
:100F6000FE4F80E1808380912D0190912E01816060
:100F700090932E0180932D0140E00AC080912D01B5
:100F800090912E01946090932E0180932D0141E069
:100F90008C2F90E066E070E09ED6FC01EF5CFE4F87
:100FA0008C2F90E066E070E096D6DC01AF5CBE4F1F
:100FB00012968C9112978150828339C08C2F90E0C9
:100FC00066E070E088D6FC01EF5CFE4FE581F0E062
:100FD000E15FFE4F80818F5F808322FD10C087FF1D
:100FE0000BC08C2F90E066E070E075D6FC01EF5CE2
:100FF000FE4F80E180831AC08C2FB9DC17C090911E
:101000001901891768F08C2FE3DC80912D019091F4
:101010002E01906190932E0180932D0141E007C035
:1010200080912D0190912E019460F4CF40E0842FA7
:10103000CDB7DEB7E6E089C690E0FC0134962CE13E
:1010400031E0EE0FFF1FE20FF31FDC01AA0FBB1F01
:10105000A20FB31F808191812D913C911197821B2A
:10106000930B08950F93CF93DF9381E08093FA0061
:1010700010924E0110924F011092500110925101A6
:101080001092520130913001C6E3D1E020E061E0DE
:1010900070E038C0E8818E2F8695869590E0880FA5
:1010A000991FDC01AA51BF4FAB010C9002C0440F45
:1010B000551F0A94E2F750914E01542B50934E0164
:1010C0008C519F4FAB01DC010C9002C0440F551FA7
:1010D0000A94E2F7CA0190914F01982B90934F0127
:1010E000E370F0E0EE0FFF1FEE0FFF1FE851FF4F20
:1010F000A381B0E0A25BBE4F8C919281892B8C932F
:101100002F5F2696231731F680914F0160914E0193
:10111000409150012091510100915201A0D9DF91DD
:10112000CF910F91089580E48093FB008093FC00A1
:101130008093FD008093FE000895A0E0B0E0E2EA15
:10114000F8E0E3C58FB7807880934A01D3B118B136
:101150000FB5FEB4EBB0ACB4BDB4D0B0C7B080E452
:1011600083B984E088B91FBC81E88EBDF894C0E0E3
:1011700020C08C2F90E066E070E0ADD5FC01EF5C04
:10118000FE4F8581A82FA370B0E0AA0FBB1FAA0F46
:10119000BB1FA851BF4FED91FC911197309719F0EB
:1011A00012966C9109958FB790914A01892B8FBF48
:1011B000CF5F80913001C817E0F2D3B918B90FBDE5
:1011C000FEBCEBB8BDBCACBCD0B8C7B88FB7909173
:1011D0004A01892B8FBFCDB7DEB7EAE0B2C537D958
:1011E000F5D8A1D942D78FEF96E7A1E08150904082
:1011F000A040E1F700C000008AEA90E095D78FEFA9
:1012000096E7A1E081509040A040E1F700C00000C7
:1012100082E390E06FE070E03ED8789412E08FEFC8
:1012200091EEA4E081509040A040E1F700C00000A2
:1012300098D981309105D9F480E090E06FE070E0BA
:101240002AD88FEF91EEA4E081509040A040E1F7C2
:1012500000C0000082E390E06FE070E01CD88FEFE8
:1012600091EEA4E081509040A040E1F707C4D798E8
:10127000CF9908C0163008F0B6C1E12FF0E0E25275
:10128000FF4F1081112309F0EFC081E090E063E08F
:1012900070E001D881E090E064E070E0FCD781E08C
:1012A00090E065E070E0F7D78FEF90E7A2E0815023
:1012B0009040A040E1F700C0000081E090E060E0D5
:1012C00070E0E9D781E090E061E070E0E4D781E090
:1012D00090E062E070E0DFD78FEF90E7A2E081500E
:1012E0009040A040E1F700C0000081E090E066E09F
:1012F00070E0D1D781E090E067E070E0CCD781E08A
:1013000090E068E070E0C7D78FEF90E7A2E08150EF
:101310009040A040E1F700C0000081E090E069E06B
:1013200070E0B9D781E090E06AE070E0B4D781E086
:1013300090E06BE070E0AFD78FEF90E7A2E08150D4
:101340009040A040E1F700C0000081E090E06CE038
:1013500070E0A1D781E090E06DE070E09CD781E083
:1013600090E06EE070E097D78FEF90E7A2E08150B9
:101370009040A040E1F700C0000089E190E063E008
:1013800070E089D789E190E064E070E084D789E17A
:1013900090E065E070E07FD78FEF90E7A2E08150AA
:1013A0009040A040E1F700C0000089E190E060E0DB
:1013B00070E071D789E190E061E070E06CD789E17D
:1013C00090E062E070E067D78FEF90E7A2E0815095
:1013D0009040A040E1F700C0000089E190E066E0A5
:1013E00070E059D789E190E067E070E054D789E177
:1013F00090E068E070E04FD78FEF90E7A2E0815077
:101400009040A040E1F700C0000089E190E069E071
:1014100070E041D789E190E06AE070E03CD789E173
:1014200090E06BE070E037D78FEF90E7A2E081505B
:101430009040A040E1F700C0000089E190E06CE03E
:1014400070E029D789E190E06DE070E024D789E170
:1014500090E06EE070E01FD78FEF90E7A2E0815040
:101460009040A040E1F70AC3113009F0B9C0C0E0D4
:10147000D0E084E190E0BE010ED7BE016F5F7F4FE8
:1014800080E090E008D7BE016E5F7F4F80E090E083
:1014900002D72396CF30D10561F78FE79AE1A6E016
:1014A00081509040A040E1F700C00000C0E0D0E0D3
:1014B00080E090E0BE01EFD6BE016F5F7F4F80E01D
:1014C00090E0E9D6BE016E5F7F4F80E090E0E3D60A
:1014D0002396CF30D10561F78FE79AE1A6E08150DE
:1014E0009040A040E1F700C00000C0E0D0E080E004
:1014F00090E0BE01D0D6BE016F5F7F4F84E190E0E7
:10150000CAD6BE016E5F7F4F80E090E0C4D62396BE
:10151000CF30D10561F78FE79AE1A6E08150904086
:10152000A040E1F700C00000C0E0D0E080E090E023
:10153000BE01B1D6BE016F5F7F4F80E090E0ABD6B9
:10154000BE016E5F7F4F80E090E0A5D62396CF303E
:10155000D10561F78FE79AE1A6E081509040A04065
:10156000E1F700C00000C0E0D0E080E090E0BE0104
:1015700092D6BE016F5F7F4F80E090E08CD6BE01B7
:101580006E5F7F4F84E190E086D62396CF30D10501
:1015900061F78FE79AE1A6E081509040A040E1F723
:1015A00000C00000C0E0D0E080E090E0BE0173D653
:1015B000BE016F5F7F4F80E090E06DD6BE016E5F31
:1015C0007F4F80E090E067D62396CF30D10561F75A
:1015D0008FE79AE1A6E081509040A040E1F74EC22B
:1015E000123009F08BC1C1E0D0E080E090E0BE0194
:1015F00052D62196CF30D105C1F781E090E063E06B
:1016000070E049D681E090E064E070E044D681E08B
:1016100090E065E070E03FD68FEF91EEA4E081505E
:101620009040A040E1F700C0000080E090E063E05F
:1016300070E031D680E090E064E070E02CD680E08D
:1016400090E065E070E027D68FEF91EEA4E0815046
:101650009040A040E1F700C0000081E090E060E031
:1016600070E019D681E090E061E070E014D681E08E
:1016700090E062E070E00FD68FEF90E7A2E081503B
:101680009040A040E1F700C0000080E090E060E002
:1016900070E001D680E090E061E070E0FCD580E091
:1016A00090E062E070E0F7D58FEF92E5A7E081501F
:1016B0009040A040E1F700C0000081E090E066E0CB
:1016C00070E0E9D581E090E067E070E0E4D581E08A
:1016D00090E068E070E0DFD58FEF90E7A2E0815006
:1016E0009040A040E1F700C0000080E090E066E09C
:1016F00070E0D1D580E090E067E070E0CCD580E08C
:1017000090E068E070E0C7D58FEF92E5A7E08150E8
:101710009040A040E1F700C0000081E090E069E067
:1017200070E0B9D581E090E06AE070E0B4D581E086
:1017300090E06BE070E0AFD58FEF90E7A2E08150D2
:101740009040A040E1F700C0000080E090E069E038
:1017500070E0A1D580E090E06AE070E09CD580E088
:1017600090E06BE070E097D58FEF92E5A7E08150B5
:101770009040A040E1F700C0000081E090E06CE004
:1017800070E089D581E090E06DE070E084D581E083
:1017900090E06EE070E07FD58FEF91EEA4E0815095
:1017A0009040A040E1F700C0000080E090E06CE0D5
:1017B00070E071D580E090E06DE070E06CD580E085
:1017C00090E06EE070E067D58FEF91EEA4E081507D
:1017D0009040A040E1F700C0000081E090E069E0A7
:1017E00070E059D581E090E06AE070E054D581E086
:1017F00090E06BE070E04FD58FEF90E7A2E0815072
:101800009040A040E1F700C0000080E090E069E077
:1018100070E041D580E090E06AE070E03CD580E087
:1018200090E06BE070E037D58FEF92E5A7E0815054
:101830009040A040E1F700C0000081E090E066E049
:1018400070E029D581E090E067E070E024D581E088
:1018500090E068E070E01FD58FEF90E7A2E0815044
:101860009040A040E1F700C0000080E090E066E01A
:1018700070E011D580E090E067E070E00CD580E08A
:1018800090E068E070E007D58FEF92E5A7E0815027
:101890009040A040E1F700C0000081E090E060E0EF
:1018A00070E0F9D481E090E061E070E0F4D481E090
:1018B00090E062E070E0EFD48FEF90E7A2E081501B
:1018C0009040A040E1F700C0000080E090E060E0C0
:1018D00070E0E1D480E090E061E070E0DCD480E092
:1018E00090E062E070E0D7D48FEF92E5A7E08150FE
:1018F0009040A040E1F700C0000090CC133059F4B4
:10190000C1E0D0E080E090E0BE01C5D42196CF30A8
:10191000D105C1F737C01430E9F5C0E0D0E084E666
:1019200090E0BE01B8D4BE016F5F7F4F84E690E0C7
:10193000B2D4BE016E5F7F4F84E690E0ACD42396B4
:10194000CF30D10561F78FEF92E5A7E0815090404D
:10195000A040E1F700C00000C0E0D0E080E090E0EF
:10196000BE0199D4BE016F5F7F4F80E090E093D4B9
:10197000BE016E5F7F4F80E090E08DD42396CF3024
:10198000D10561F78FEF94E3ACE081509040A04027
:10199000E1F774C0153009F042CC82E090E060E0DD
:1019A00070E079D485E090E061E070E074D480E08C
:1019B00090E062E070E06FD485E090E063E070E07A
:1019C0006AD480E090E064E070E065D485E090E067
:1019D00065E070E060D480E090E066E070E05BD4A9
:1019E00085E090E067E070E056D480E090E068E049
:1019F00070E051D485E090E069E070E04CD480E084
:101A000090E06AE070E047D485E090E06BE070E041
:101A100042D482E090E06CE070E03DD480E090E061
:101A20006DE070E038D480E090E06EE070E033D498
:101A30008FEF91EEA4E081509040A040E1F700C00C
:101A40000000C0E0D0E080E090E0BE0124D4BE0100
:101A50006F5F7F4F80E090E01ED4BE016E5F7F4FCE
:101A600080E090E018D42396CF30D10561F78FEF56
:101A700093ECA9E081509040A040E1F700C0000045
:101A8000CECB04D06894B1118DC0089570D088F089
:101A90009F5790F0B92F9927B751A0F0D1F0660F5A
:101AA000771F881F991F1AF0BA95C9F712C0B13075
:101AB00081F077D0B1E0089574C0672F782F882720
:101AC000B85F39F0B93FCCF3869577956795B395B4
:101AD000D9F73EF490958095709561957F4F8F4F23
:101AE0009F4F0895E89409C097FB3EF49095809528
:101AF000709561957F4F8F4F9F4F9923A9F0F92FD4
:101B000096E9BB279395F695879577956795B79551
:101B1000F111F8CFFAF4BB0F11F460FF1BC06F5F37
:101B20007F4F8F4F9F4F16C0882311F096E911C049
:101B3000772321F09EE8872F762F05C0662371F06A
:101B400096E8862F70E060E02AF09A95660F771F7E
:101B5000881FDAF7880F9695879597F9089557FDAE
:101B60009058440F551F59F05F3F71F04795880F0B
:101B700097FB991F61F09F3F79F0879508951216A2
:101B800013061406551FF2CF4695F1DF08C016164E
:101B900017061806991FF1CF8695710561050894FF
:101BA0000895E894BB2766277727CB0197F9089516
:101BB0000AD080C071D028F076D018F0952309F0B3
:101BC00062C067C0EFCFCBDFA8F39923D9F35523C9
:101BD000C9F3950F50E0551FAA27EE27FF27BB2713
:101BE00000240894679520F4E20FF31FB41F0A1E27
:101BF000220F331F441FAA1F6695A9F7779530F46B
:101C0000F30FB41F0A1E121E08F46395330F441F0E
:101C1000AA1F221F769599F7879520F4B40F0A1E04
:101C2000121E631F440FAA1F221F331F8695A9F798
:101C3000862F712D602D11249F5750408AF0E1F0BE
:101C400088234AF0EE0FFF1FBB1F661F771F881FF8
:101C500091505040A9F79E3F510570F014C0A2CF9B
:101C60005F3FECF3983EDCF3869577956795B795E3
:101C7000F795E7959F5FC1F7FE2B880F911D96950D
:101C8000879597F9089597F99F6780E870E060E07D
:101C900008959FEF80EC089500240A941616170605
:101CA00018060906089500240A941216130614064D
:101CB00005060895092E0394000C11F4882352F0B0
:101CC000BB0F40F4BF2B11F460FF04C06F5F7F4F68
:101CD0008F4F9F4F08955527002480FF02C0060EA6
:101CE000571F660F771F6115710521F0969587952F
:101CF000009799F7952F802D08952F923F924F923C
:101D00005F926F927F928F929F92AF92BF92CF928B
:101D1000DF92EF92FF920F931F93CF93DF93CDB794
:101D2000DEB7CA1BDB0B0FB6F894DEBF0FBECDBF0C
:101D300009942A88398848885F846E847D848C84DD
:101D40009B84AA84B984C884DF80EE80FD800C81E6
:101D50001B81AA81B981CE0FD11D0FB6F894DEBFC9
:0C1D60000FBECDBFED010895F894FFCF39
:101D6C000000000003000000060000000C00000052
:101D7C0018000000060000000C0000001800000015
:101D8C00000000000300000018000000000000002C
:101D9C0003000000060000000C000000080000001A
:101DAC001000000020000000400000008000000037
:101DBC000001000000020000000400000008000008
:101DCC0000080000000400000002000002010000F6
:101DDC0084000000480000003000000032000102C6
:101DEC000304050000010204CD02040200000000FF
:101DFC0000000000000000001C01014040404000B9
:00000001FF
