:1000000010C02AC029C028C027C026C025C024C0CF
:1000100023C0F8C121C020C01FC01EC01DC01CC00D
:100020001BC011241FBECFE5D2E0DEBFCDBF11E063
:10003000A0E6B0E0E2E2FEE102C005900D92A03041
:10004000B107D9F711E0A0E0B1E001C01D92A435DD
:10005000B107E1F7D0D8E3CED3CF00C000C000C0D5
:1000600000C000C000C000000895D698D498DE9863
:10007000DC980895D69AF1DF1DD00895D49AEDDF6B
:10008000D698EBDFD498E9DFD69AE7DF13D008954E
:10009000082ED69AE2DF802D0DD0882311F002D0F1
:1000A000F8CF0895D49AD69AD8DFD498D6DFD698C8
:1000B000D4DF08950894881F01C0880F59F0D49A9E
:1000C00018F40000D69802C0D69A00C0C6DFD498B3
:1000D000C4DFF3CFD49AD698C0DFD498CC9BFECFA0
:1000E0008827CE9981E0B9DF99270895882701C034
:1000F00081E071E0D49AD698B0DFD498AEDFCC9B83
:10010000FECF8894CE990894771FA0F7D49A8130B7
:1001100011F0D69801C0D69AA0DFD498CC9BFECF20
:100120009CDF872F992708950F931F93CF93DF9319
:10013000182FA0DF80E0BEDF80E8BCDFB3DFC6E9B8
:10014000D0E0CE010197F1F7812F94DF80E0B2DF9C
:1001500080E2B0DFA7DF2197F1F7812F8BDF81E00D
:10016000A9DF80E1A7DF9EDF80E197E2FC01319704
:10017000F1F70197F1F706E0C0E1D7E2812F7ADFCE
:10018000802F98DF80E096DF80E094DF80E192DFCF
:1001900080E590DF87DFFE013197F1F7FE013197AF
:1001A000F1F70C5F063451F7DF91CF911F910F915A
:1001B0000895CF92DF92EF92FF920F931F93CF9308
:1001C000DF93C82E0CE910E086E0D82E96E9E92EE0
:1001D000F12C8C2D4FDF8D2D6DDF80E06BDF80E00B
:1001E00069DFE801888166DF0C5F1F4F898162DF6C
:1001F00059DFF7013197F1F784E0D80EE6E4DE1617
:1002000041F7DF91CF911F910F91FF90EF90DF9019
:10021000CF900895CF92DF92EF92FF92CF93DF932A
:1002200000D0CDB7DEB76A017B0190E0C91690E13E
:10023000D90690E0E90690E0F90634F04FEFC42EBD
:100240004FE0D42EE12CF12C29833A8313DF29814E
:10025000822F3A81932F8031910514F08FE090E046
:10026000880F880F8A5F26DF80E024DF80E022DFAE
:100270008C2D20DF8D2D1EDF15DF0F900F90DF916D
:10028000CF91FF90EF90DF90CF900895CF93DF93C1
:10029000EB0118161906D4F5843691050CF59C016E
:1002A000B901882777FD8095982F79DC2AE037ED12
:1002B00043E252E4D8DC40DCAB01BC01FE01EE0FAE
:1002C000FF1FEE0FFF1FE456FF4F408351836283F1
:1002D00073838AEA90E09E019DDFDF91CF910895BC
:1002E000FB01EE0FFF1FEE0FFF1FE456FF4F1082C2
:1002F0001182128213828AEA90E04FEF5FE060E0A1
:1003000070E09E0187DFDF91CF910895FB01EE0F32
:10031000FF1FEE0FFF1FE456FF4F10821182128263
:1003200013828AEA90E040E050E0BA019E0172DF59
:10033000D4CF0F931F93CF93DF938C01EA0116164E
:100340001706CCF56436710504F5882777FD80958E
:10035000982F25DC2AE037ED43E252E484DCECDB25
:10036000AB01BC01FE01EE0FFF1FEE0FFF1FE456B5
:10037000FF4F4083518362837383C8019E014ADF2C
:10038000DF91CF911F910F910895FA01EE0FFF1F9A
:10039000EE0FFF1FE456FF4F10821182128213826C
:1003A0004FEF5FE060E070E09E0134DFDF91CF91BE
:1003B0001F910F910895FA01EE0FFF1FEE0FFF1F1F
:1003C000E456FF4F1082118212821382C80140E06E
:1003D00050E0BA019E011EDFD3CF4CDE8CEF6ADE07
:1003E00080E068DE80E166DE5DDE089584E086BF41
:1003F00089B7826089BF83B7856083BF80B7826019
:1004000080BF08951F920F920FB60F9211242F9361
:100410003F938F939F9380910301909104010196E4
:1004200090930401809303012091DC003091DD0062
:100430008217930738F0109204011092030181E0B3
:1004400080930201809100019091010101969093A7
:100450000101809300019F918F913F912F910F9007
:100460000FBE0F901F90189584E086BF089580E816
:1004700086BD81E086BD85B7806485BF08957F9382
:100480009F937BB3982F909579237BBB7BB3962F5B
:10049000909579237BBB982F7AB3792B7ABB7AB36B
:1004A000962F792B7ABB942F909578B3792378BBCC
:1004B00077B3942F792B77BBDB98D39A9F917F9159
:1004C00008957F939F937AB370934901709353017A
:1004D0007AB370934C0170934D01782F7095909181
:1004E0005301972390935301762F709590914D016E
:1004F000972390934D015F93782F962F972B90958C
:100500007AB3972390934B01592F962B90934C01DC
:10051000952F982B9093490180914B015F91709199
:100520004D017ABB9F917F9108956ABB86BBEABA61
:100530006ABB0ABB86BB0895DB9A0895DB9870916D
:100540004C017ABB089580E060E04AE023E06BD183
:10055000ACD082E08093140184E18093170195E090
:10056000909318011092160180931501E4E1F1E0D7
:1005700081E08293168210921B0110921A017894E6
:10058000089580910201882399F0109202018091D0
:10059000000190910101CFD0909306018093050155
:1005A000807091709093080180930701009779F70C
:1005B0000895A0E0B0E0EEEDF2E003CCC82F162FD6
:1005C000F8940098E82FE695E695F0E0EE0FFF1F0F
:1005D000DF01AC51BF4F8C9187B9009ADF01A9515F
:1005E000BF4FEB51FF4F8C9160816BDFF82ED0E055
:1005F000FE01E550FF4FB080DD24CC24C3941EC023
:10060000812F6F2D4091530120914D01009149019F
:10061000E0904C018ADF8FB790914A01892B8FBF00
:100620008091FA008F5F8093FA00823030F0823040
:1006300021F0833011F0C092FA00D394F894DB14C7
:10064000F9F67ADF1DBC1CBC5D9A459B15C08FB7BF
:1006500090914A01892B8FBF06C08CB59DB520E2D1
:100660008030920780F45D9BF8CF84B595B5CC0FB0
:10067000DD1FC45EDE4F0DC0CC0FDD1FC45EDE4F3C
:1006800081E090E006C0CC0FDD1FC45EDE4F80E04D
:1006900090E29983888352DF8FB790914A01892B2A
:1006A0008FBFCDB7DEB7E9E0A8CBCF93C0E003C0E2
:1006B0008C2F9AD1CF5F80913001C817C8F3109268
:1006C0000C0110920B01DAD4CF910895FC0181E264
:1006D00090E09183808384E290E09383828380E042
:1006E00095E0958384830895CF93C0E003C08C2F59
:1006F0007BD1CF5F80913001C817C8F3CF910895A7
:100700001092300184E08093140184E180931701FA
:1007100095E0909318011092160180931501E4E181
:10072000F1E081E0829383E0868309D510921B017A
:1007300010921A0108951F93CF93DF9310922E0108
:1007400010922D0140910B0150910C0190930C01DE
:1007500080930B0120910D0130910E01241B350B6C
:10076000280F391FC0E003C0285C3040CF5F283C11
:100770003105D0F730930E0120930D0180912F01A8
:10078000882341F08C1718F410922F0103C08C1BA2
:1007900080932F01DED4E0911A01F0911B01309774
:1007A00009F0099510E0D0E005C08D2F6C2F37D1EE
:1007B000182BDF5F50913001D517B8F3112349F0A2
:1007C00080912D0190912E01916090932E01809344
:1007D0002D0110922C01A1E3B1E040E081E090E016
:1007E00018C02C91287199F0E42FE695E695E695CE
:1007F000F0E0E45EFE4F242F2770BC0102C0660FBC
:10080000771F2A95E2F79B013089322B308B4F5F9F
:100810001696451731F780912D0190912E01DF91A9
:10082000CF911F910895CF93DF93C82FD62F30918A
:100830003001E1E3F1E0832F90E066E070E0A6DABA
:10084000DF01A80FB91F13964C93832F90E066E049
:1008500070E09CDADF01A80FB91FD770DD0FDD0F44
:10086000DD0F1496DC93832F90E066E070E08EDA63
:10087000DF01A80FB91F1596CC93832F90E066E097
:1008800070E084DADF01A80FB91F2370832F90E096
:1008900066E070E07BDAE80FF91F84818C7F282BFB
:1008A00014962C9314973F5F30933001DF91CF91D2
:1008B00008950F931F93CF93C82F90E066E070E0E8
:1008C00065DAFC01EF5CFE4F45818C2F90E066E01D
:1008D00070E05CDAFC01EF5CFE4F238130E00090B9
:1008E000130102C0359527950A94E2F7022F2430B0
:1008F00008F404E080913001C817F0F5842FA8D3E4
:100900009C01A02FB0E006950695802F90E08A1BF1
:100910009B0B82179307A4F48C2F90E066E070E0A5
:1009200035DA8C010F5C1E4F8C2F90E066E070E092
:100930002DDAFC01EF5CFE4F84818B7FF80184830C
:10094000B095A195BF4FA217B307C4F08C2F90E0CC
:1009500066E070E01BDAFC01EF5CFE4F8C2F90E04C
:1009600066E070E013DADC01AF5CBE4F14968C9148
:1009700014978460848302C020E030E0C901CF91E5
:100980001F910F910895CF93C82F21E331E090E09C
:1009900066E070E0FBD9F901E80FF91FE5818C2FC3
:1009A00090E066E070E0F2D9D901A80FB91F82E0AB
:1009B0008C9340912D0150912E01426050932E0155
:1009C00040932D018C2F90E066E070E0DFD9280F76
:1009D000391FD90112961C921297F0E0E15FFE4F89
:1009E00080E88083CF910895CF93C82FCCDF21E397
:1009F00031E08C2F90E066E070E0C8D9F901E80F93
:100A0000F91F81E080838C2F90E066E070E0BED912
:100A1000280F391F8FE0F9018183CF910895EF925C
:100A2000FF920F931F93CF93DF93C82FD62F41DFF1
:100A30007C018C2F90E066E070E0A8D9FC01EF5CAF
:100A4000FE4F24818C2F90E066E070E09FD9FC017E
:100A5000EF5CFE4FA381B0E0822F837090E001969F
:100A6000AD0102C0559547958A95E2F7CA0142301B
:100A700008F482E08D01081B11098C2F90E066E0DC
:100A800070E084D9FC01EF5CFE4F8081843009F472
:100A900009C1853030F4813071F0823009F0D2C262
:100AA00070C0803109F4C5C1803209F493C2883026
:100AB00009F0C8C242C200912D0110912E01C80157
:100AC000926090932E0180932D018C2F90E066E030
:100AD00070E05CD9FC01EF5CFE4F25818C2F90E02B
:100AE00066E070E053D9FC01EF5CFE4F4181822F3C
:100AF00090E04A3080F0FC01EE0FFF1FEC5DFE4FEE
:100B0000DC01AA0FBB1FA45EBE4F8D919C91119773
:100B1000918380831DC0DC01AA0FBB1FAC5DBE4F5B
:100B20002D913C911197FC01EE0FFF1FE45EFE4FEB
:100B3000808191818217930718F42150304005C0BD
:100B40002817390758F42F5F3F4F11963C932E9387
:100B50000860126010932E0100932D0141508C2FDC
:100B600090E066E070E012D9FC01EF5CFE4F41833B
:100B7000442311F48C2F07DF8091150180932F01FE
:100B800059C222FF18C08C2F90E066E070E0FED8BA
:100B9000FC01EF5CFE4FE581F0E0E15FFE4F10826B
:100BA0008C2F90E066E070E0F1D8FC01EF5CFE4F26
:100BB00080E2808336C2C701F7FE02C080E090E089
:100BC0008A179B07A0F08C2F90E066E070E0DED8DB
:100BD000FC01EF5CFE4F84E080838C2F90E066E0A8
:100BE00070E0D4D8FC01EF5CFE4F128225C2DD23F9
:100BF00009F428C280912F01882309F023C28C2F89
:100C000090E066E070E0C2D8FC01EF5CFE4F258109
:100C100030E0D901AA0FBB1FAC5DBE4F8D919C91F6
:100C20001197F901EE0FFF1FE45EFE4F40815181E5
:100C3000F901E15FFE4F8417950768F420812D0FBD
:100C40002083309118013058231708F4FBC120E8A5
:100C50002083019610C048175907D0F420812D1B1E
:100C6000208330E840911701532F541B521708F48A
:100C7000E9C13083019711969C938E9380912D0149
:100C800090912E01886090932E0180932D01DAC1FE
:100C90008081813810F081508083808187FDD2C1AE
:100CA0008F5FB4C1C701F7FE02C080E090E08A17F1
:100CB0009B0708F4ADC18091150180932F018C2F03
:100CC00090E066E070E062D8FC01EF5CFE4F8C2F94
:100CD00090E066E070E05AD8DC01AF5CBE4F12963F
:100CE0008C9112978F5F82838C2F90E066E070E08A
:100CF0004DD8FC01EF5CFE4F048110E008731070CA
:100D000033E0169507953A95E1F7002309F04DC0B9
:100D100055C0DC1709F447C08D2F90E066E070E005
:100D200035D8FC01EF5CFE4F848190E088739070B1
:100D300023E0969587952A95E1F70817A1F58D2F61
:100D4000B8DD9C018D2F90E066E070E01FD8FC01BB
:100D5000EF5CFE4F8381281B31098C2F90E066E009
:100D600070E014D8FC01EF5CFE4F8381A701481BA3
:100D70005109421753076CF08D2F90E066E070E048
:100D800005D8FC01EF5CFE4F8081803111F0883086
:100D900051F48C2F90E066E070E0F8D7FC01EF5C36
:100DA000FE4F128211E0DF5F02C010E0D0E08091C0
:100DB0003001D81708F4ADCF112379F480911401D4
:100DC000882359F080912D0190912E019860909385
:100DD0002E0180932D0141E001C040E08C2F90E076
:100DE00066E070E0D3D7FC01EF5CFE4F928180910A
:100DF0001401981708F427C120912D0130912E017C
:100E0000236030932E0120932D018C2F90E066E01B
:100E100070E0BCD7FC01EF5CFE4F80E180838C2F3B
:100E200090E066E070E0B2D7FC01EF5CFE4F11820B
:100E30000AC122FF1EC08C2F90E066E070E0A6D7AA
:100E4000FC01EF5CFE4FE581F0E0E15FFE4F80E8E2
:100E500080838C2F90E066E070E098D7FC01EF5C17
:100E6000FE4F80E2808380912D0190912E01906150
:100E700058C0C701F7FE02C080E090E080179107DC
:100E800080F48C2F90E066E070E080D7FC01EF5C8E
:100E9000FE4F88E0808380912D0190912E01946017
:100EA00040C080912D0190912E01816090932E0180
:100EB00080932D018C2F90E066E070E067D7FC01F5
:100EC000EF5CFE4F228180911401281750F48C2F83
:100ED00090E066E070E05AD7FC01EF5CFE4F2F5FB8
:100EE000228330911601332311F18C2F90E066E0BC
:100EF00070E04CD7FC01EF5CFE4F21818C2F231753
:100F000050F490E066E070E041D7FC01EF5CFE4FEA
:100F1000D20FD1830CC068DD80912D0190912E01FC
:100F2000926090932E0180932D0141E001C040E03A
:100F30008091150180932F0186C0809115018093C7
:100F40002F018C2F90E066E070E020D7FC01EF5C71
:100F5000FE4F8281882309F45BC0C701F7FE02C0FF
:100F600080E090E008171907A8F48C2F90E066E065
:100F700070E00CD7FC01EF5CFE4F80E18083809134
:100F80002D0190912E01816090932E0180932D016F
:100F900040E00AC080912D0190912E0194609093C1
:100FA0002E0180932D0141E08C2F90E066E070E0EF
:100FB000EDD6FC01EF5CFE4F8C2F90E066E070E018
:100FC000E5D6DC01AF5CBE4F12968C911297815032
:100FD000828339C08C2F90E066E070E0D7D6FC01A8
:100FE000EF5CFE4FE581F0E0E15FFE4F80818F5FB7
:100FF000808322FD10C087FF0BC08C2F90E066E03D
:1010000070E0C4D6FC01EF5CFE4F80E180831AC023
:101010008C2FB9DC17C090911901891768F08C2FBB
:10102000E3DC80912D0190912E01906190932E012F
:1010300080932D0141E007C080912D0190912E01F8
:101040009460F4CF40E0842FCDB7DEB7E6E0D8C699
:1010500090E0FC0134962CE131E0EE0FFF1FE20F2F
:10106000F31FDC01AA0FBB1FA20FB31F8081918168
:101070002D913C911197821B930B08950F93CF9361
:10108000DF9381E08093FA0010924E0110924F019D
:101090001092500110925101109252013091300182
:1010A000C6E3D1E020E061E070E038C0E8818E2F37
:1010B0008695869590E0880F991FDC01AA51BF4F55
:1010C000AB010C9002C0440F551F0A94E2F75091F7
:1010D0004E01542B50934E018C519F4FAB01DC01BC
:1010E0000C9002C0440F551F0A94E2F7CA01909178
:1010F0004F01982B90934F01E370F0E0EE0FFF1F2C
:10110000EE0FFF1FE851FF4FA381B0E0A25BBE4F7F
:101110008C919281892B8C932F5F2696231731F621
:1011200080914F0160914E014091500120915101F9
:1011300000915201A4D9DF91CF910F91089580E4DD
:101140008093FB008093FC008093FD008093FE0061
:101150000895A0E0B0E0EEEAF8E032C68FB78078FC
:1011600080934A01D3B118B10FB5FEB4EBB0ACB463
:10117000BDB4D0B0C7B080E483B984E088B91FBCE7
:1011800081E88EBDF894C0E020C08C2F90E066E02E
:1011900070E0FCD5FC01EF5CFE4F8581A82FA370A9
:1011A000B0E0AA0FBB1FAA0FBB1FA851BF4FED9104
:1011B000FC911197309719F012966C9109958FB7A1
:1011C00090914A01892B8FBFCF5F80913001C81762
:1011D000E0F2D3B918B90FBDFEBCEBB8BDBCACBCD6
:1011E000D0B8C7B88FB790914A01892B8FBFCDB7C0
:1011F000DEB7EAE001C63BD9F9D8A5D936D784E6EF
:1012000090E00197F1F78AEA90E08ED780E197E2CB
:101210000197F1F782E390E06FE070E037D822E0C9
:10122000B22E00E117E230E3E32E35E7F32E48EE6D
:10123000C42E43E0D42EA5D9D798CF9909C085E014
:101240008B1508F47BC0EB2DF0E0E252FF4FB0802D
:10125000BB2009F024C2C3E0D0E081E090E0BE01F1
:1012600015D8C8010197F1F7C8010197F1F7C80136
:101270000197F1F72196C630D10579F7C0E0D0E0AB
:1012800081E090E0BE0102D8C8010197F1F7C801E2
:101290000197F1F7C8010197F1F72196C330D10505
:1012A00079F7C6E0D0E081E090E0BE01EFD7C80159
:1012B0000197F1F7C8010197F1F7C8010197F1F71C
:1012C0002196CF30D10579F7C3E0D0E089E190E0F5
:1012D000BE01DCD7C8010197F1F7C8010197F1F70A
:1012E000C8010197F1F72196C630D10579F7C0E022
:1012F000D0E089E190E0BE01C9D7C8010197F1F7BC
:10130000C8010197F1F7C8010197F1F72196C330A1
:10131000D10579F7C6E0D0E089E190E0BE01B6D70B
:10132000C8010197F1F7C8010197F1F7C6010197CC
:10133000F1F72196CF30D10579F77DCFC1E0D0E02C
:1013400080E090E0BE01A2D72196CF30D105C1F751
:1013500081E090E063E070E099D781E090E064E0A4
:1013600070E094D781E090E065E070E08FD7C8012D
:101370000197F1F7C8010197F1F7C8010197F1F75B
:10138000C8010197F1F780E090E063E070E07ED75C
:1013900080E090E064E070E079D780E090E065E084
:1013A00070E074D7C8010197F1F7C8010197F1F710
:1013B000C8010197F1F7C8010197F1F7C80101973A
:1013C000F1F781E090E060E070E060D781E090E0CC
:1013D00061E070E05BD781E090E062E070E056D7BA
:1013E000C8010197F1F7C8010197F1F780E090E09B
:1013F00060E070E04BD780E090E061E070E046D7BD
:1014000080E090E062E070E041D7C8010197F1F719
:10141000C8010197F1F7C8010197F1F7C8010197D9
:10142000F1F7C8010197F1F781E090E066E070E024
:101430002DD781E090E067E070E028D781E090E070
:1014400068E070E023D7C8010197F1F7C801019760
:10145000F1F780E090E066E070E018D780E090E07F
:1014600067E070E013D780E090E068E070E00ED7AE
:10147000C8010197F1F7C8010197F1F7C801019779
:10148000F1F7C8010197F1F7C8010197F1F781E081
:1014900090E069E070E0FAD681E090E06AE070E008
:1014A000F5D681E090E06BE070E0F0D6C8010197DE
:1014B000F1F7C8010197F1F780E090E069E070E092
:1014C000E5D680E090E06AE070E0E0D680E090E071
:1014D0006BE070E0DBD6C8010197F1F7C801019716
:1014E000F1F7C8010197F1F7C8010197F1F7C801B9
:1014F0000197F1F781E090E06CE070E0C7D681E001
:1015000090E06DE070E0C2D681E090E06EE070E0C7
:10151000BDD6C8010197F1F7C8010197F1F7C801DD
:101520000197F1F7C8010197F1F780E090E06CE0D6
:1015300070E0ACD680E090E06DE070E0A7D680E08F
:1015400090E06EE070E0A2D6C8010197F1F7C80103
:101550000197F1F7C8010197F1F7C8010197F1F779
:10156000C8010197F1F781E090E069E070E08ED664
:1015700081E090E06AE070E089D681E090E06BE085
:1015800070E084D6C8010197F1F7C8010197F1F71F
:1015900080E090E069E070E079D680E090E06AE079
:1015A00070E074D680E090E06BE070E06FD6C80128
:1015B0000197F1F7C8010197F1F7C8010197F1F719
:1015C000C8010197F1F7C8010197F1F781E090E0B8
:1015D00066E070E05BD681E090E067E070E056D6B0
:1015E00081E090E068E070E051D6C8010197F1F722
:1015F000C8010197F1F780E090E066E070E046D620
:1016000080E090E067E070E041D680E090E068E044
:1016100070E03CD6C8010197F1F7C8010197F1F7D6
:10162000C8010197F1F7C8010197F1F7C8010197C7
:10163000F1F781E090E060E070E028D681E090E092
:1016400061E070E023D681E090E062E070E01ED6B9
:10165000C8010197F1F7C8010197F1F780E090E028
:1016600060E070E013D680E090E061E070E00ED6BC
:1016700080E090E062E070E009D6C8010197F1F7E0
:10168000C8010197F1F7C8010197F1F7C801019767
:10169000F1F7C8010197F1F792E0B92ECCCD81E0C6
:1016A000B81609F027C1C0E0D0E084E190E0BE01A7
:1016B000EDD5BE016F5F7F4F80E090E0E7D5BE01C2
:1016C0006E5F7F4F80E090E0E1D52396CF30D1056B
:1016D00061F7C7010197F1F7C7010197F1F7C7015A
:1016E0000197F1F7C7010197F1F7C7010197F1F7EA
:1016F000C7010197F1F7C7010197F1F7C7010197FA
:10170000F1F7C7010197F1F7C0E0D0E080E090E089
:10171000BE01BCD5BE016F5F7F4F80E090E0B6D5C3
:10172000BE016E5F7F4F80E090E0B0D52396CF3052
:10173000D10561F7C7010197F1F7C7010197F1F7EB
:10174000C7010197F1F7C7010197F1F7C7010197A9
:10175000F1F7C7010197F1F7C7010197F1F7C70149
:101760000197F1F7C7010197F1F7C0E0D0E080E001
:1017700090E0BE018BD5BE016F5F7F4F84E190E0AA
:1017800085D5BE016E5F7F4F80E090E07FD52396C8
:10179000CF30D10561F7C7010197F1F7C701019774
:1017A000F1F7C7010197F1F7C7010197F1F7C701F9
:1017B0000197F1F7C7010197F1F7C7010197F1F719
:1017C000C7010197F1F7C7010197F1F7C0E0D0E039
:1017D00080E090E0BE015AD5BE016F5F7F4F80E090
:1017E00090E054D5BE016E5F7F4F80E090E04ED513
:1017F0002396CF30D10561F7C7010197F1F7C701F3
:101800000197F1F7C7010197F1F7C7010197F1F7C8
:10181000C7010197F1F7C7010197F1F7C7010197D8
:10182000F1F7C7010197F1F7C7010197F1F7C0E0A0
:10183000D0E080E090E0BE0129D5BE016F5F7F4F10
:1018400080E090E023D5BE016E5F7F4F84E190E0A1
:101850001DD52396CF30D10561F7C7010197F1F768
:10186000C7010197F1F7C7010197F1F7C701019788
:10187000F1F7C7010197F1F7C7010197F1F7C70128
:101880000197F1F7C7010197F1F7C7010197F1F748
:10189000C0E0D0E080E090E0BE01F8D4BE016F5F10
:1018A0007F4F80E090E0F2D4BE016E5F7F4F80E01A
:1018B00090E0ECD42396CF30D10561F7C7010197B2
:1018C000F1F7C7010197F1F7C7010197F1F7C701D8
:1018D0000197F1F7C7010197F1F7C7010197F1F7F8
:1018E000C7010197F1F7C7010197F1F7C701019708
:1018F000F1F7A1CC82E0B81609F420CD83E0B81648
:1019000009F485C084E0B81609F4DAC085E0B81699
:1019100009F091CC82E090E060E070E0B7D485E01F
:1019200090E061E070E0B2D480E090E062E070E0CE
:10193000ADD485E090E063E070E0A8D480E090E072
:1019400064E070E0A3D485E090E065E070E09ED4B0
:1019500080E090E066E070E099D485E090E067E098
:1019600070E094D480E090E068E070E08FD485E08F
:1019700090E069E070E08AD480E090E06AE070E096
:1019800085D485E090E06BE070E080D482E090E068
:101990006CE070E07BD480E090E06DE070E076D4A5
:1019A00080E090E06EE070E071D4C7010197F1F73C
:1019B000C7010197F1F7C7010197F1F7C701019737
:1019C000F1F7C7010197F1F7C0E0D0E080E090E0C7
:1019D000BE015CD4BE016F5F7F4F80E090E056D4C3
:1019E000BE016E5F7F4F80E090E050D42396CF30F1
:1019F000D10561F7C7010197F1F7C7010197F1F729
:101A0000C7010197F1F7C7010197F1F757CFC1E07F
:101A1000D0E080E090E0BE0139D42196CF30D105EE
:101A2000C1F7C8010197F1F7C8010197F1F7C801A3
:101A30000197F1F7C8010197F1F7C8010197F1F794
:101A4000C8010197F1F7C8010197F1F7C8010197A3
:101A5000F1F7C8010197F1F7C8010197F1F7C80143
:101A60000197F1F7C8010197F1F7C8010197F1F764
:101A7000C8010197F1F7C8010197F1F7C801019773
:101A8000F1F7C8010197F1F7C8010197F1F7C80113
:101A90000197F1F7C8010197F1F7C8010197F1F734
:101AA000C8010197F1F7C8010197F1F7C801019743
:101AB000F1F7C8010197F1F7C8010197F1F7BBCB26
:101AC000C0E0D0E084E690E0BE01E0D3BE016F5FED
:101AD0007F4F84E690E0DAD3BE016E5F7F4F84E6ED
:101AE00090E0D4D32396CF30D10561F7C701019799
:101AF000F1F7C7010197F1F7C7010197F1F7C701A6
:101B00000197F1F7C7010197F1F7C0E0D0E080E05D
:101B100090E0BE01BBD3BE016F5F7F4F80E090E0DD
:101B2000B5D3BE016E5F7F4F80E090E0AFD32396C8
:101B3000CF30D10561F75ECF04D06894B1118DC06C
:101B4000089570D088F09F5790F0B92F9927B7511A
:101B5000A0F0D1F0660F771F881F991F1AF0BA9571
:101B6000C9F712C0B13081F077D0B1E0089574C0E8
:101B7000672F782F8827B85F39F0B93FCCF3869567
:101B800077956795B395D9F73EF4909580957095C4
:101B900061957F4F8F4F9F4F0895E89409C097FB41
:101BA0003EF490958095709561957F4F8F4F9F4F34
:101BB0009923A9F0F92F96E9BB279395F695879578
:101BC00077956795B795F111F8CFFAF4BB0F11F43B
:101BD00060FF1BC06F5F7F4F8F4F9F4F16C08823E2
:101BE00011F096E911C0772321F09EE8872F762F18
:101BF00005C0662371F096E8862F70E060E02AF059
:101C00009A95660F771F881FDAF7880F9695879544
:101C100097F9089557FD9058440F551F59F05F3FAD
:101C200071F04795880F97FB991F61F09F3F79F0FE
:101C300087950895121613061406551FF2CF469580
:101C4000F1DF08C0161617061806991FF1CF869502
:101C50007105610508940895E894BB2766277727E6
:101C6000CB0197F908950AD080C071D028F076D0C2
:101C700018F0952309F062C067C0EFCFCBDFA8F35F
:101C80009923D9F35523C9F3950F50E0551FAA277F
:101C9000EE27FF27BB2700240894679520F4E20F66
:101CA000F31FB41F0A1E220F331F441FAA1F66957D
:101CB000A9F7779530F4F30FB41F0A1E121E08F42B
:101CC0006395330F441FAA1F221F769599F78795B6
:101CD00020F4B40F0A1E121E631F440FAA1F221FF6
:101CE000331F8695A9F7862F712D602D11249F57DC
:101CF00050408AF0E1F088234AF0EE0FFF1FBB1F2F
:101D0000661F771F881F91505040A9F79E3F5105CD
:101D100070F014C0A2CF5F3FECF3983EDCF38695E1
:101D200077956795B795F795E7959F5FC1F7FE2B78
:101D3000880F911D9695879597F9089597F99F6754
:101D400080E870E060E008959FEF80EC0895002443
:101D50000A941616170618060906089500240A9410
:101D600012161306140605060895092E0394000C96
:101D700011F4882352F0BB0F40F4BF2B11F460FF25
:101D800004C06F5F7F4F8F4F9F4F089555270024EA
:101D900080FF02C0060E571F660F771F6115710581
:101DA00021F096958795009799F7952F802D0895A6
:101DB0002F923F924F925F926F927F928F929F925B
:101DC000AF92BF92CF92DF92EF92FF920F931F9349
:101DD000CF93DF93CDB7DEB7CA1BDB0B0FB6F894FA
:101DE000DEBF0FBECDBF09942A88398848885F843A
:101DF0006E847D848C849B84AA84B984C884DF80AB
:101E0000EE80FD800C811B81AA81B981CE0FD11D8E
:101E10000FB6F894DEBF0FBECDBFED010895F89464
:021E2000FFCFF2
:101E22000000000003000000060000000C0000009B
:101E320018000000060000000C000000180000005E
:101E42000000000003000000180000000000000075
:101E520003000000060000000C0000000800000063
:101E62001000000020000000400000008000000080
:101E72000001000000020000000400000008000051
:101E8200000800000004000000020000020100003F
:101E9200840000004800000030000000320001020F
:101EA2000304050000010204D9020402000000003C
:101EB20000000000000000001C0101404040400002
:00000001FF
